{
  "address": "0xCf7Ed3AccA5a467e9e704C703E8D87F634fB0Fc9",
  "abi": [
    {
      "inputs": [
        {
          "internalType": "contract ERC20Votes",
          "name": "_token",
          "type": "address"
        },
        {
          "internalType": "contract TimelockController",
          "name": "_timelock",
          "type": "address"
        },
        {
          "internalType": "uint256",
          "name": "_quorumPercentage",
          "type": "uint256"
        },
        {
          "internalType": "uint256",
          "name": "_votingPeriod",
          "type": "uint256"
        },
        {
          "internalType": "uint256",
          "name": "_votingDelay",
          "type": "uint256"
        }
      ],
      "stateMutability": "nonpayable",
      "type": "constructor"
    },
    {
      "anonymous": false,
      "inputs": [
        {
          "indexed": false,
          "internalType": "uint256",
          "name": "proposalId",
          "type": "uint256"
        }
      ],
      "name": "ProposalCanceled",
      "type": "event"
    },
    {
      "anonymous": false,
      "inputs": [
        {
          "indexed": false,
          "internalType": "uint256",
          "name": "proposalId",
          "type": "uint256"
        },
        {
          "indexed": false,
          "internalType": "address",
          "name": "proposer",
          "type": "address"
        },
        {
          "indexed": false,
          "internalType": "address[]",
          "name": "targets",
          "type": "address[]"
        },
        {
          "indexed": false,
          "internalType": "uint256[]",
          "name": "values",
          "type": "uint256[]"
        },
        {
          "indexed": false,
          "internalType": "string[]",
          "name": "signatures",
          "type": "string[]"
        },
        {
          "indexed": false,
          "internalType": "bytes[]",
          "name": "calldatas",
          "type": "bytes[]"
        },
        {
          "indexed": false,
          "internalType": "uint256",
          "name": "startBlock",
          "type": "uint256"
        },
        {
          "indexed": false,
          "internalType": "uint256",
          "name": "endBlock",
          "type": "uint256"
        },
        {
          "indexed": false,
          "internalType": "string",
          "name": "description",
          "type": "string"
        }
      ],
      "name": "ProposalCreated",
      "type": "event"
    },
    {
      "anonymous": false,
      "inputs": [
        {
          "indexed": false,
          "internalType": "uint256",
          "name": "proposalId",
          "type": "uint256"
        }
      ],
      "name": "ProposalExecuted",
      "type": "event"
    },
    {
      "anonymous": false,
      "inputs": [
        {
          "indexed": false,
          "internalType": "uint256",
          "name": "proposalId",
          "type": "uint256"
        },
        {
          "indexed": false,
          "internalType": "uint256",
          "name": "eta",
          "type": "uint256"
        }
      ],
      "name": "ProposalQueued",
      "type": "event"
    },
    {
      "anonymous": false,
      "inputs": [
        {
          "indexed": false,
          "internalType": "uint256",
          "name": "oldProposalThreshold",
          "type": "uint256"
        },
        {
          "indexed": false,
          "internalType": "uint256",
          "name": "newProposalThreshold",
          "type": "uint256"
        }
      ],
      "name": "ProposalThresholdSet",
      "type": "event"
    },
    {
      "anonymous": false,
      "inputs": [
        {
          "indexed": false,
          "internalType": "uint256",
          "name": "oldQuorumNumerator",
          "type": "uint256"
        },
        {
          "indexed": false,
          "internalType": "uint256",
          "name": "newQuorumNumerator",
          "type": "uint256"
        }
      ],
      "name": "QuorumNumeratorUpdated",
      "type": "event"
    },
    {
      "anonymous": false,
      "inputs": [
        {
          "indexed": false,
          "internalType": "address",
          "name": "oldTimelock",
          "type": "address"
        },
        {
          "indexed": false,
          "internalType": "address",
          "name": "newTimelock",
          "type": "address"
        }
      ],
      "name": "TimelockChange",
      "type": "event"
    },
    {
      "anonymous": false,
      "inputs": [
        {
          "indexed": true,
          "internalType": "address",
          "name": "voter",
          "type": "address"
        },
        {
          "indexed": false,
          "internalType": "uint256",
          "name": "proposalId",
          "type": "uint256"
        },
        {
          "indexed": false,
          "internalType": "uint8",
          "name": "support",
          "type": "uint8"
        },
        {
          "indexed": false,
          "internalType": "uint256",
          "name": "weight",
          "type": "uint256"
        },
        {
          "indexed": false,
          "internalType": "string",
          "name": "reason",
          "type": "string"
        }
      ],
      "name": "VoteCast",
      "type": "event"
    },
    {
      "anonymous": false,
      "inputs": [
        {
          "indexed": false,
          "internalType": "uint256",
          "name": "oldVotingDelay",
          "type": "uint256"
        },
        {
          "indexed": false,
          "internalType": "uint256",
          "name": "newVotingDelay",
          "type": "uint256"
        }
      ],
      "name": "VotingDelaySet",
      "type": "event"
    },
    {
      "anonymous": false,
      "inputs": [
        {
          "indexed": false,
          "internalType": "uint256",
          "name": "oldVotingPeriod",
          "type": "uint256"
        },
        {
          "indexed": false,
          "internalType": "uint256",
          "name": "newVotingPeriod",
          "type": "uint256"
        }
      ],
      "name": "VotingPeriodSet",
      "type": "event"
    },
    {
      "inputs": [],
      "name": "BALLOT_TYPEHASH",
      "outputs": [
        {
          "internalType": "bytes32",
          "name": "",
          "type": "bytes32"
        }
      ],
      "stateMutability": "view",
      "type": "function"
    },
    {
      "inputs": [],
      "name": "COUNTING_MODE",
      "outputs": [
        {
          "internalType": "string",
          "name": "",
          "type": "string"
        }
      ],
      "stateMutability": "pure",
      "type": "function"
    },
    {
      "inputs": [
        {
          "internalType": "uint256",
          "name": "proposalId",
          "type": "uint256"
        },
        {
          "internalType": "uint8",
          "name": "support",
          "type": "uint8"
        }
      ],
      "name": "castVote",
      "outputs": [
        {
          "internalType": "uint256",
          "name": "",
          "type": "uint256"
        }
      ],
      "stateMutability": "nonpayable",
      "type": "function"
    },
    {
      "inputs": [
        {
          "internalType": "uint256",
          "name": "proposalId",
          "type": "uint256"
        },
        {
          "internalType": "uint8",
          "name": "support",
          "type": "uint8"
        },
        {
          "internalType": "uint8",
          "name": "v",
          "type": "uint8"
        },
        {
          "internalType": "bytes32",
          "name": "r",
          "type": "bytes32"
        },
        {
          "internalType": "bytes32",
          "name": "s",
          "type": "bytes32"
        }
      ],
      "name": "castVoteBySig",
      "outputs": [
        {
          "internalType": "uint256",
          "name": "",
          "type": "uint256"
        }
      ],
      "stateMutability": "nonpayable",
      "type": "function"
    },
    {
      "inputs": [
        {
          "internalType": "uint256",
          "name": "proposalId",
          "type": "uint256"
        },
        {
          "internalType": "uint8",
          "name": "support",
          "type": "uint8"
        },
        {
          "internalType": "string",
          "name": "reason",
          "type": "string"
        }
      ],
      "name": "castVoteWithReason",
      "outputs": [
        {
          "internalType": "uint256",
          "name": "",
          "type": "uint256"
        }
      ],
      "stateMutability": "nonpayable",
      "type": "function"
    },
    {
      "inputs": [
        {
          "internalType": "address[]",
          "name": "targets",
          "type": "address[]"
        },
        {
          "internalType": "uint256[]",
          "name": "values",
          "type": "uint256[]"
        },
        {
          "internalType": "bytes[]",
          "name": "calldatas",
          "type": "bytes[]"
        },
        {
          "internalType": "bytes32",
          "name": "descriptionHash",
          "type": "bytes32"
        }
      ],
      "name": "execute",
      "outputs": [
        {
          "internalType": "uint256",
          "name": "",
          "type": "uint256"
        }
      ],
      "stateMutability": "payable",
      "type": "function"
    },
    {
      "inputs": [
        {
          "internalType": "address",
          "name": "account",
          "type": "address"
        },
        {
          "internalType": "uint256",
          "name": "blockNumber",
          "type": "uint256"
        }
      ],
      "name": "getVotes",
      "outputs": [
        {
          "internalType": "uint256",
          "name": "",
          "type": "uint256"
        }
      ],
      "stateMutability": "view",
      "type": "function"
    },
    {
      "inputs": [
        {
          "internalType": "uint256",
          "name": "proposalId",
          "type": "uint256"
        },
        {
          "internalType": "address",
          "name": "account",
          "type": "address"
        }
      ],
      "name": "hasVoted",
      "outputs": [
        {
          "internalType": "bool",
          "name": "",
          "type": "bool"
        }
      ],
      "stateMutability": "view",
      "type": "function"
    },
    {
      "inputs": [
        {
          "internalType": "address[]",
          "name": "targets",
          "type": "address[]"
        },
        {
          "internalType": "uint256[]",
          "name": "values",
          "type": "uint256[]"
        },
        {
          "internalType": "bytes[]",
          "name": "calldatas",
          "type": "bytes[]"
        },
        {
          "internalType": "bytes32",
          "name": "descriptionHash",
          "type": "bytes32"
        }
      ],
      "name": "hashProposal",
      "outputs": [
        {
          "internalType": "uint256",
          "name": "",
          "type": "uint256"
        }
      ],
      "stateMutability": "pure",
      "type": "function"
    },
    {
      "inputs": [],
      "name": "name",
      "outputs": [
        {
          "internalType": "string",
          "name": "",
          "type": "string"
        }
      ],
      "stateMutability": "view",
      "type": "function"
    },
    {
      "inputs": [
        {
          "internalType": "uint256",
          "name": "proposalId",
          "type": "uint256"
        }
      ],
      "name": "proposalDeadline",
      "outputs": [
        {
          "internalType": "uint256",
          "name": "",
          "type": "uint256"
        }
      ],
      "stateMutability": "view",
      "type": "function"
    },
    {
      "inputs": [
        {
          "internalType": "uint256",
          "name": "proposalId",
          "type": "uint256"
        }
      ],
      "name": "proposalEta",
      "outputs": [
        {
          "internalType": "uint256",
          "name": "",
          "type": "uint256"
        }
      ],
      "stateMutability": "view",
      "type": "function"
    },
    {
      "inputs": [
        {
          "internalType": "uint256",
          "name": "proposalId",
          "type": "uint256"
        }
      ],
      "name": "proposalSnapshot",
      "outputs": [
        {
          "internalType": "uint256",
          "name": "",
          "type": "uint256"
        }
      ],
      "stateMutability": "view",
      "type": "function"
    },
    {
      "inputs": [],
      "name": "proposalThreshold",
      "outputs": [
        {
          "internalType": "uint256",
          "name": "",
          "type": "uint256"
        }
      ],
      "stateMutability": "view",
      "type": "function"
    },
    {
      "inputs": [
        {
          "internalType": "uint256",
          "name": "proposalId",
          "type": "uint256"
        }
      ],
      "name": "proposalVotes",
      "outputs": [
        {
          "internalType": "uint256",
          "name": "againstVotes",
          "type": "uint256"
        },
        {
          "internalType": "uint256",
          "name": "forVotes",
          "type": "uint256"
        },
        {
          "internalType": "uint256",
          "name": "abstainVotes",
          "type": "uint256"
        }
      ],
      "stateMutability": "view",
      "type": "function"
    },
    {
      "inputs": [
        {
          "internalType": "address[]",
          "name": "targets",
          "type": "address[]"
        },
        {
          "internalType": "uint256[]",
          "name": "values",
          "type": "uint256[]"
        },
        {
          "internalType": "bytes[]",
          "name": "calldatas",
          "type": "bytes[]"
        },
        {
          "internalType": "string",
          "name": "description",
          "type": "string"
        }
      ],
      "name": "propose",
      "outputs": [
        {
          "internalType": "uint256",
          "name": "",
          "type": "uint256"
        }
      ],
      "stateMutability": "nonpayable",
      "type": "function"
    },
    {
      "inputs": [
        {
          "internalType": "address[]",
          "name": "targets",
          "type": "address[]"
        },
        {
          "internalType": "uint256[]",
          "name": "values",
          "type": "uint256[]"
        },
        {
          "internalType": "bytes[]",
          "name": "calldatas",
          "type": "bytes[]"
        },
        {
          "internalType": "bytes32",
          "name": "descriptionHash",
          "type": "bytes32"
        }
      ],
      "name": "queue",
      "outputs": [
        {
          "internalType": "uint256",
          "name": "",
          "type": "uint256"
        }
      ],
      "stateMutability": "nonpayable",
      "type": "function"
    },
    {
      "inputs": [
        {
          "internalType": "uint256",
          "name": "blockNumber",
          "type": "uint256"
        }
      ],
      "name": "quorum",
      "outputs": [
        {
          "internalType": "uint256",
          "name": "",
          "type": "uint256"
        }
      ],
      "stateMutability": "view",
      "type": "function"
    },
    {
      "inputs": [],
      "name": "quorumDenominator",
      "outputs": [
        {
          "internalType": "uint256",
          "name": "",
          "type": "uint256"
        }
      ],
      "stateMutability": "view",
      "type": "function"
    },
    {
      "inputs": [],
      "name": "quorumNumerator",
      "outputs": [
        {
          "internalType": "uint256",
          "name": "",
          "type": "uint256"
        }
      ],
      "stateMutability": "view",
      "type": "function"
    },
    {
      "inputs": [
        {
          "internalType": "address",
          "name": "target",
          "type": "address"
        },
        {
          "internalType": "uint256",
          "name": "value",
          "type": "uint256"
        },
        {
          "internalType": "bytes",
          "name": "data",
          "type": "bytes"
        }
      ],
      "name": "relay",
      "outputs": [],
      "stateMutability": "nonpayable",
      "type": "function"
    },
    {
      "inputs": [],
      "name": "s_votingDelay",
      "outputs": [
        {
          "internalType": "uint256",
          "name": "",
          "type": "uint256"
        }
      ],
      "stateMutability": "view",
      "type": "function"
    },
    {
      "inputs": [],
      "name": "s_votingPeriod",
      "outputs": [
        {
          "internalType": "uint256",
          "name": "",
          "type": "uint256"
        }
      ],
      "stateMutability": "view",
      "type": "function"
    },
    {
      "inputs": [
        {
          "internalType": "uint256",
          "name": "newProposalThreshold",
          "type": "uint256"
        }
      ],
      "name": "setProposalThreshold",
      "outputs": [],
      "stateMutability": "nonpayable",
      "type": "function"
    },
    {
      "inputs": [
        {
          "internalType": "uint256",
          "name": "newVotingDelay",
          "type": "uint256"
        }
      ],
      "name": "setVotingDelay",
      "outputs": [],
      "stateMutability": "nonpayable",
      "type": "function"
    },
    {
      "inputs": [
        {
          "internalType": "uint256",
          "name": "newVotingPeriod",
          "type": "uint256"
        }
      ],
      "name": "setVotingPeriod",
      "outputs": [],
      "stateMutability": "nonpayable",
      "type": "function"
    },
    {
      "inputs": [
        {
          "internalType": "uint256",
          "name": "proposalId",
          "type": "uint256"
        }
      ],
      "name": "state",
      "outputs": [
        {
          "internalType": "enum IGovernor.ProposalState",
          "name": "",
          "type": "uint8"
        }
      ],
      "stateMutability": "view",
      "type": "function"
    },
    {
      "inputs": [
        {
          "internalType": "bytes4",
          "name": "interfaceId",
          "type": "bytes4"
        }
      ],
      "name": "supportsInterface",
      "outputs": [
        {
          "internalType": "bool",
          "name": "",
          "type": "bool"
        }
      ],
      "stateMutability": "view",
      "type": "function"
    },
    {
      "inputs": [],
      "name": "timelock",
      "outputs": [
        {
          "internalType": "address",
          "name": "",
          "type": "address"
        }
      ],
      "stateMutability": "view",
      "type": "function"
    },
    {
      "inputs": [],
      "name": "token",
      "outputs": [
        {
          "internalType": "contract IVotes",
          "name": "",
          "type": "address"
        }
      ],
      "stateMutability": "view",
      "type": "function"
    },
    {
      "inputs": [
        {
          "internalType": "uint256",
          "name": "newQuorumNumerator",
          "type": "uint256"
        }
      ],
      "name": "updateQuorumNumerator",
      "outputs": [],
      "stateMutability": "nonpayable",
      "type": "function"
    },
    {
      "inputs": [
        {
          "internalType": "contract TimelockController",
          "name": "newTimelock",
          "type": "address"
        }
      ],
      "name": "updateTimelock",
      "outputs": [],
      "stateMutability": "nonpayable",
      "type": "function"
    },
    {
      "inputs": [],
      "name": "version",
      "outputs": [
        {
          "internalType": "string",
          "name": "",
          "type": "string"
        }
      ],
      "stateMutability": "view",
      "type": "function"
    },
    {
      "inputs": [],
      "name": "votingDelay",
      "outputs": [
        {
          "internalType": "uint256",
          "name": "",
          "type": "uint256"
        }
      ],
      "stateMutability": "view",
      "type": "function"
    },
    {
      "inputs": [],
      "name": "votingPeriod",
      "outputs": [
        {
          "internalType": "uint256",
          "name": "",
          "type": "uint256"
        }
      ],
      "stateMutability": "view",
      "type": "function"
    },
    {
      "stateMutability": "payable",
      "type": "receive"
    }
  ],
  "transactionHash": "0xe35834273f259c13087da167d4725f7a77b661c2b5f8b16e89229ec54606fd12",
  "args": [
    "0x5FbDB2315678afecb367f032d93F642f64180aa3",
    "0x9fE46736679d2D9a65F0992F2272dE9f3c7fa6e0",
    4,
    5,
    1
  ],
  "numDeployments": 1,
  "solcInputHash": "bb7c541b40c3718192f605d09f0e919f",
  "bytecode": "0x6101606040523480156200001257600080fd5b5060405162005bfb38038062005bfb83398181016040528101906200003891906200069d565b838386838560006040518060400160405280601081526020017f476f7665726e6f72436f6e7472616374000000000000000000000000000000008152508062000086620001fb60201b60201c565b60008280519060200120905060008280519060200120905060007f8b73c3c69bb8fe3d512ecc4cf759cc79239f7b179b0ffacaa9a75d522b39400f90508260e081815250508161010081815250504660a08181525050620000ef8184846200023860201b60201c565b608081815250503073ffffffffffffffffffffffffffffffffffffffff1660c08173ffffffffffffffffffffffffffffffffffffffff16815250508061012081815250505050505050806000908051906020019062000150929190620004db565b505062000163836200027460201b60201c565b6200017482620002bb60201b60201c565b62000185816200034860201b60201c565b5050508073ffffffffffffffffffffffffffffffffffffffff166101408173ffffffffffffffffffffffffffffffffffffffff168152505050620001cf816200038f60201b60201c565b50620001e1816200043160201b60201c565b508060098190555081600a819055505050505050620009e5565b60606040518060400160405280600181526020017f3100000000000000000000000000000000000000000000000000000000000000815250905090565b600083838346306040516020016200025595949392919062000762565b6040516020818303038152906040528051906020012090509392505050565b7fc565b045403dc03c2eea82b81a0465edad9e2e7fc4d97e11421c209da93d7a9360025482604051620002a9929190620007bf565b60405180910390a18060028190555050565b6000811162000301576040517f08c379a0000000000000000000000000000000000000000000000000000000008152600401620002f89062000873565b60405180910390fd5b7f7e3f7f0708a84de9203036abaa450dccc85ad5ff52f78c170f3edb55cf5e88286003548260405162000336929190620007bf565b60405180910390a18060038190555050565b7fccb45da8d5717e6c4544694297c4ba5cf151d455c9bb0ed4fc7a38411bc05461600454826040516200037d929190620007bf565b60405180910390a18060048190555050565b6200039f620004d260201b60201c565b811115620003e4576040517f08c379a0000000000000000000000000000000000000000000000000000000008152600401620003db9062000931565b60405180910390fd5b60006006549050816006819055507f0553476bf02ef2726e8ce5ced78d63e26e602e4a2257b1f559418e24b4633997818360405162000425929190620007bf565b60405180910390a15050565b7f08f74ea46ef7894f65eabfb5e6e695de773a000b47c529ab559178069b226401600760009054906101000a900473ffffffffffffffffffffffffffffffffffffffff16826040516200048692919062000953565b60405180910390a180600760006101000a81548173ffffffffffffffffffffffffffffffffffffffff021916908373ffffffffffffffffffffffffffffffffffffffff16021790555050565b60006064905090565b828054620004e990620009af565b90600052602060002090601f0160209004810192826200050d576000855562000559565b82601f106200052857805160ff191683800117855562000559565b8280016001018555821562000559579182015b82811115620005585782518255916020019190600101906200053b565b5b5090506200056891906200056c565b5090565b5b80821115620005875760008160009055506001016200056d565b5090565b600080fd5b600073ffffffffffffffffffffffffffffffffffffffff82169050919050565b6000620005bd8262000590565b9050919050565b6000620005d182620005b0565b9050919050565b620005e381620005c4565b8114620005ef57600080fd5b50565b6000815190506200060381620005d8565b92915050565b6000620006168262000590565b9050919050565b60006200062a8262000609565b9050919050565b6200063c816200061d565b81146200064857600080fd5b50565b6000815190506200065c8162000631565b92915050565b6000819050919050565b620006778162000662565b81146200068357600080fd5b50565b60008151905062000697816200066c565b92915050565b600080600080600060a08688031215620006bc57620006bb6200058b565b5b6000620006cc88828901620005f2565b9550506020620006df888289016200064b565b9450506040620006f28882890162000686565b9350506060620007058882890162000686565b9250506080620007188882890162000686565b9150509295509295909350565b6000819050919050565b6200073a8162000725565b82525050565b6200074b8162000662565b82525050565b6200075c81620005b0565b82525050565b600060a0820190506200077960008301886200072f565b6200078860208301876200072f565b6200079760408301866200072f565b620007a6606083018562000740565b620007b5608083018462000751565b9695505050505050565b6000604082019050620007d6600083018562000740565b620007e5602083018462000740565b9392505050565b600082825260208201905092915050565b7f476f7665726e6f7253657474696e67733a20766f74696e6720706572696f642060008201527f746f6f206c6f7700000000000000000000000000000000000000000000000000602082015250565b60006200085b602783620007ec565b91506200086882620007fd565b604082019050919050565b600060208201905081810360008301526200088e816200084c565b9050919050565b7f476f7665726e6f72566f74657351756f72756d4672616374696f6e3a2071756f60008201527f72756d4e756d657261746f72206f7665722071756f72756d44656e6f6d696e6160208201527f746f720000000000000000000000000000000000000000000000000000000000604082015250565b600062000919604383620007ec565b9150620009268262000895565b606082019050919050565b600060208201905081810360008301526200094c816200090a565b9050919050565b60006040820190506200096a600083018562000751565b62000979602083018462000751565b9392505050565b7f4e487b7100000000000000000000000000000000000000000000000000000000600052602260045260246000fd5b60006002820490506001821680620009c857607f821691505b60208210811415620009df57620009de62000980565b5b50919050565b60805160a05160c05160e0516101005161012051610140516151ad62000a4e6000396000818161168b01528181612044015261214e015260006123d601526000612418015260006123f70152600061232c01526000612382015260006123ab01526151ad6000f3fe6080604052600436106102085760003560e01c80637b3c71d311610118578063c59057e4116100a0578063ea0217cf1161006f578063ea0217cf14610846578063eb9019d41461086f578063ece40cc1146108ac578063f8ce560a146108d5578063fc0c546a146109125761024e565b8063c59057e414610788578063d33219b4146107c5578063dd4e2ba5146107f0578063deaaa7cc1461081b5761024e565b8063a890c910116100e7578063a890c91014610691578063ab58fb8e146106ba578063b58131b0146106f7578063c01f9e3714610722578063c28bc2fa1461075f5761024e565b80637b3c71d3146105c15780637d5e81e2146105fe57806397c3d3341461063b578063a7713a70146106665761024e565b80633932abb11161019b578063544ffc9c1161016a578063544ffc9c146104c657806354fd4d5014610505578063567813881461053057806370b0f6601461056d578063725ae3dc146105965761024e565b80633932abb1146103e45780633bccf4fd1461040f5780633e4f49e61461044c57806343859632146104895761024e565b8063102d7f2c116101d7578063102d7f2c1461030f578063160cbed71461033a5780632656227d146103775780632d63f693146103a75761024e565b806301ffc9a71461025357806302a251a31461029057806306f3f9e6146102bb57806306fdde03146102e45761024e565b3661024e573073ffffffffffffffffffffffffffffffffffffffff1661022c61093d565b73ffffffffffffffffffffffffffffffffffffffff161461024c57600080fd5b005b600080fd5b34801561025f57600080fd5b5061027a60048036038101906102759190612e32565b61094c565b6040516102879190612e7a565b60405180910390f35b34801561029c57600080fd5b506102a561095e565b6040516102b29190612eae565b60405180910390f35b3480156102c757600080fd5b506102e260048036038101906102dd9190612ef5565b610968565b005b3480156102f057600080fd5b506102f96109f0565b6040516103069190612fbb565b60405180910390f35b34801561031b57600080fd5b50610324610a82565b6040516103319190612eae565b60405180910390f35b34801561034657600080fd5b50610361600480360381019061035c9190613412565b610a88565b60405161036e9190612eae565b60405180910390f35b610391600480360381019061038c9190613412565b610d60565b60405161039e9190612eae565b60405180910390f35b3480156103b357600080fd5b506103ce60048036038101906103c99190612ef5565b610e93565b6040516103db9190612eae565b60405180910390f35b3480156103f057600080fd5b506103f9610f01565b6040516104069190612eae565b60405180910390f35b34801561041b57600080fd5b5061043660048036038101906104319190613506565b610f0b565b6040516104439190612eae565b60405180910390f35b34801561045857600080fd5b50610473600480360381019061046e9190612ef5565b610f95565b60405161048091906135f8565b60405180910390f35b34801561049557600080fd5b506104b060048036038101906104ab9190613613565b610fa7565b6040516104bd9190612e7a565b60405180910390f35b3480156104d257600080fd5b506104ed60048036038101906104e89190612ef5565b611012565b6040516104fc93929190613653565b60405180910390f35b34801561051157600080fd5b5061051a61104a565b6040516105279190612fbb565b60405180910390f35b34801561053c57600080fd5b506105576004803603810190610552919061368a565b611087565b6040516105649190612eae565b60405180910390f35b34801561057957600080fd5b50610594600480360381019061058f9190612ef5565b6110b8565b005b3480156105a257600080fd5b506105ab611140565b6040516105b89190612eae565b60405180910390f35b3480156105cd57600080fd5b506105e860048036038101906105e39190613725565b611146565b6040516105f59190612eae565b60405180910390f35b34801561060a57600080fd5b506106256004803603810190610620919061383a565b6111ae565b6040516106329190612eae565b60405180910390f35b34801561064757600080fd5b506106506111c6565b60405161065d9190612eae565b60405180910390f35b34801561067257600080fd5b5061067b6111cf565b6040516106889190612eae565b60405180910390f35b34801561069d57600080fd5b506106b860048036038101906106b39190613961565b6111d9565b005b3480156106c657600080fd5b506106e160048036038101906106dc9190612ef5565b611261565b6040516106ee9190612eae565b60405180910390f35b34801561070357600080fd5b5061070c61133d565b6040516107199190612eae565b60405180910390f35b34801561072e57600080fd5b5061074960048036038101906107449190612ef5565b61134c565b6040516107569190612eae565b60405180910390f35b34801561076b57600080fd5b50610786600480360381019061078191906139e4565b6113ba565b005b34801561079457600080fd5b506107af60048036038101906107aa9190613412565b61148c565b6040516107bc9190612eae565b60405180910390f35b3480156107d157600080fd5b506107da6114c8565b6040516107e79190613a67565b60405180910390f35b3480156107fc57600080fd5b506108056114f2565b6040516108129190612fbb565b60405180910390f35b34801561082757600080fd5b5061083061152f565b60405161083d9190613a91565b60405180910390f35b34801561085257600080fd5b5061086d60048036038101906108689190612ef5565b611553565b005b34801561087b57600080fd5b5061089660048036038101906108919190613aac565b6115db565b6040516108a39190612eae565b60405180910390f35b3480156108b857600080fd5b506108d360048036038101906108ce9190612ef5565b6115ef565b005b3480156108e157600080fd5b506108fc60048036038101906108f79190612ef5565b611677565b6040516109099190612eae565b60405180910390f35b34801561091e57600080fd5b50610927611689565b6040516109349190613b4b565b60405180910390f35b60006109476116ad565b905090565b6000610957826116d7565b9050919050565b6000600a54905090565b61097061093d565b73ffffffffffffffffffffffffffffffffffffffff1661098e611751565b73ffffffffffffffffffffffffffffffffffffffff16146109e4576040517f08c379a00000000000000000000000000000000000000000000000000000000081526004016109db90613bb2565b60405180910390fd5b6109ed81611759565b50565b6060600080546109ff90613c01565b80601f0160208091040260200160405190810160405280929190818152602001828054610a2b90613c01565b8015610a785780601f10610a4d57610100808354040283529160200191610a78565b820191906000526020600020905b815481529060010190602001808311610a5b57829003601f168201915b5050505050905090565b60095481565b600080610a978686868661148c565b905060046007811115610aad57610aac613581565b5b610ab682610f95565b6007811115610ac857610ac7613581565b5b14610b08576040517f08c379a0000000000000000000000000000000000000000000000000000000008152600401610aff90613ca5565b60405180910390fd5b6000600760009054906101000a900473ffffffffffffffffffffffffffffffffffffffff1673ffffffffffffffffffffffffffffffffffffffff1663f27a0c926040518163ffffffff1660e01b815260040160206040518083038186803b158015610b7257600080fd5b505afa158015610b86573d6000803e3d6000fd5b505050506040513d601f19601f82011682018060405250810190610baa9190613cda565b9050600760009054906101000a900473ffffffffffffffffffffffffffffffffffffffff1673ffffffffffffffffffffffffffffffffffffffff1663b1c5f4278888886000896040518663ffffffff1660e01b8152600401610c10959493929190613fe2565b60206040518083038186803b158015610c2857600080fd5b505afa158015610c3c573d6000803e3d6000fd5b505050506040513d601f19601f82011682018060405250810190610c60919061405f565b6008600084815260200190815260200160002081905550600760009054906101000a900473ffffffffffffffffffffffffffffffffffffffff1673ffffffffffffffffffffffffffffffffffffffff16638f2a0bb0888888600089876040518763ffffffff1660e01b8152600401610cdd9695949392919061408c565b600060405180830381600087803b158015610cf757600080fd5b505af1158015610d0b573d6000803e3d6000fd5b505050507f9a2e42fd6722813d69113e7d0079d3d940171428df7373df9c7f7617cfda2892828242610d3d9190614131565b604051610d4b929190614187565b60405180910390a18192505050949350505050565b600080610d6f8686868661148c565b90506000610d7c82610f95565b905060046007811115610d9257610d91613581565b5b816007811115610da557610da4613581565b5b1480610dd5575060056007811115610dc057610dbf613581565b5b816007811115610dd357610dd2613581565b5b145b610e14576040517f08c379a0000000000000000000000000000000000000000000000000000000008152600401610e0b90613ca5565b60405180910390fd5b600180600084815260200190815260200160002060020160006101000a81548160ff0219169083151502179055507f712ae1383f79ac853f8d882153778e0260ef8f03b504e2866e0593e04d2b291f82604051610e719190612eae565b60405180910390a1610e8682888888886117ee565b8192505050949350505050565b6000610ef0600160008481526020019081526020016000206000016040518060200160405290816000820160009054906101000a900467ffffffffffffffff1667ffffffffffffffff1667ffffffffffffffff1681525050611802565b67ffffffffffffffff169050919050565b6000600954905090565b600080610f6c610f647f150214d74d59b7d1e90c73fc22ef3d991dd0a76b046543d4d80ab92d2a50328f8989604051602001610f49939291906141bf565b60405160208183030381529060405280519060200120611810565b86868661182a565b9050610f8987828860405180602001604052806000815250611855565b91505095945050505050565b6000610fa0826119a9565b9050919050565b60006005600084815260200190815260200160002060030160008373ffffffffffffffffffffffffffffffffffffffff1673ffffffffffffffffffffffffffffffffffffffff16815260200190815260200160002060009054906101000a900460ff16905092915050565b600080600080600560008681526020019081526020016000209050806000015481600101548260020154935093509350509193909250565b60606040518060400160405280600181526020017f3100000000000000000000000000000000000000000000000000000000000000815250905090565b600080611092611751565b90506110af84828560405180602001604052806000815250611855565b91505092915050565b6110c061093d565b73ffffffffffffffffffffffffffffffffffffffff166110de611751565b73ffffffffffffffffffffffffffffffffffffffff1614611134576040517f08c379a000000000000000000000000000000000000000000000000000000000815260040161112b90613bb2565b60405180910390fd5b61113d81611b9b565b50565b600a5481565b600080611151611751565b90506111a386828787878080601f016020809104026020016040519081016040528093929190818152602001838380828437600081840152601f19601f82011690508083019250505050505050611855565b915050949350505050565b60006111bc85858585611be0565b9050949350505050565b60006064905090565b6000600654905090565b6111e161093d565b73ffffffffffffffffffffffffffffffffffffffff166111ff611751565b73ffffffffffffffffffffffffffffffffffffffff1614611255576040517f08c379a000000000000000000000000000000000000000000000000000000000815260040161124c90613bb2565b60405180910390fd5b61125e81611ee0565b50565b600080600760009054906101000a900473ffffffffffffffffffffffffffffffffffffffff1673ffffffffffffffffffffffffffffffffffffffff1663d45c443560086000868152602001908152602001600020546040518263ffffffff1660e01b81526004016112d29190613a91565b60206040518083038186803b1580156112ea57600080fd5b505afa1580156112fe573d6000803e3d6000fd5b505050506040513d601f19601f820116820180604052508101906113229190613cda565b9050600181146113325780611335565b60005b915050919050565b6000611347611f7f565b905090565b60006113a9600160008481526020019081526020016000206001016040518060200160405290816000820160009054906101000a900467ffffffffffffffff1667ffffffffffffffff1667ffffffffffffffff1681525050611802565b67ffffffffffffffff169050919050565b6113c261093d565b73ffffffffffffffffffffffffffffffffffffffff166113e0611751565b73ffffffffffffffffffffffffffffffffffffffff1614611436576040517f08c379a000000000000000000000000000000000000000000000000000000000815260040161142d90613bb2565b60405180910390fd5b6114858483838080601f016020809104026020016040519081016040528093929190818152602001838380828437600081840152601f19601f8201169050808301925050505050505085611f89565b5050505050565b6000848484846040516020016114a594939291906141f6565b6040516020818303038152906040528051906020012060001c9050949350505050565b6000600760009054906101000a900473ffffffffffffffffffffffffffffffffffffffff16905090565b60606040518060400160405280602081526020017f737570706f72743d627261766f2671756f72756d3d666f722c6162737461696e815250905090565b7f150214d74d59b7d1e90c73fc22ef3d991dd0a76b046543d4d80ab92d2a50328f81565b61155b61093d565b73ffffffffffffffffffffffffffffffffffffffff16611579611751565b73ffffffffffffffffffffffffffffffffffffffff16146115cf576040517f08c379a00000000000000000000000000000000000000000000000000000000081526004016115c690613bb2565b60405180910390fd5b6115d881611fb8565b50565b60006115e78383612040565b905092915050565b6115f761093d565b73ffffffffffffffffffffffffffffffffffffffff16611615611751565b73ffffffffffffffffffffffffffffffffffffffff161461166b576040517f08c379a000000000000000000000000000000000000000000000000000000000815260040161166290613bb2565b60405180910390fd5b611674816120f5565b50565b60006116828261213a565b9050919050565b7f000000000000000000000000000000000000000000000000000000000000000081565b6000600760009054906101000a900473ffffffffffffffffffffffffffffffffffffffff16905090565b60007f6e665ced000000000000000000000000000000000000000000000000000000007bffffffffffffffffffffffffffffffffffffffffffffffffffffffff1916827bffffffffffffffffffffffffffffffffffffffffffffffffffffffff1916148061174a575061174982612210565b5b9050919050565b600033905090565b6117616111c6565b8111156117a3576040517f08c379a000000000000000000000000000000000000000000000000000000000815260040161179a906142e8565b60405180910390fd5b60006006549050816006819055507f0553476bf02ef2726e8ce5ced78d63e26e602e4a2257b1f559418e24b463399781836040516117e2929190614187565b60405180910390a15050565b6117fb858585858561228a565b5050505050565b600081600001519050919050565b600061182361181d612328565b83612442565b9050919050565b600080600061183b87878787612475565b9150915061184881612582565b8192505050949350505050565b6000806001600087815260200190815260200160002090506001600781111561188157611880613581565b5b61188a87610f95565b600781111561189c5761189b613581565b5b146118dc576040517f08c379a00000000000000000000000000000000000000000000000000000000081526004016118d39061437a565b60405180910390fd5b600061193a8661192b846000016040518060200160405290816000820160009054906101000a900467ffffffffffffffff1667ffffffffffffffff1667ffffffffffffffff1681525050611802565b67ffffffffffffffff166115db565b905061194887878784612757565b8573ffffffffffffffffffffffffffffffffffffffff167fb8e138887d0aa13bab447e82de9d5c1777041ecd21ca36ba824ff1e6c07ddda488878488604051611994949392919061439a565b60405180910390a28092505050949350505050565b6000806119b58361295d565b9050600460078111156119cb576119ca613581565b5b8160078111156119de576119dd613581565b5b146119ec5780915050611b96565b6000600860008581526020019081526020016000205490506000801b811415611a19578192505050611b96565b600760009054906101000a900473ffffffffffffffffffffffffffffffffffffffff1673ffffffffffffffffffffffffffffffffffffffff16632ab0f529826040518263ffffffff1660e01b8152600401611a749190613a91565b60206040518083038186803b158015611a8c57600080fd5b505afa158015611aa0573d6000803e3d6000fd5b505050506040513d601f19601f82011682018060405250810190611ac49190614412565b15611ad457600792505050611b96565b600760009054906101000a900473ffffffffffffffffffffffffffffffffffffffff1673ffffffffffffffffffffffffffffffffffffffff1663584b153e826040518263ffffffff1660e01b8152600401611b2f9190613a91565b60206040518083038186803b158015611b4757600080fd5b505afa158015611b5b573d6000803e3d6000fd5b505050506040513d601f19601f82011682018060405250810190611b7f9190614412565b15611b8f57600592505050611b96565b6002925050505b919050565b7fc565b045403dc03c2eea82b81a0465edad9e2e7fc4d97e11421c209da93d7a9360025482604051611bce929190614187565b60405180910390a18060028190555050565b6000611bea61133d565b611c0033600143611bfb919061443f565b6115db565b1015611c41576040517f08c379a0000000000000000000000000000000000000000000000000000000008152600401611c389061450b565b60405180910390fd5b6000611c56868686868051906020012061148c565b90508451865114611c9c576040517f08c379a0000000000000000000000000000000000000000000000000000000008152600401611c939061459d565b60405180910390fd5b8351865114611ce0576040517f08c379a0000000000000000000000000000000000000000000000000000000008152600401611cd79061459d565b60405180910390fd5b6000865111611d24576040517f08c379a0000000000000000000000000000000000000000000000000000000008152600401611d1b90614609565b60405180910390fd5b6000600160008381526020019081526020016000209050611d84816000016040518060200160405290816000820160009054906101000a900467ffffffffffffffff1667ffffffffffffffff1667ffffffffffffffff1681525050612a72565b611dc3576040517f08c379a0000000000000000000000000000000000000000000000000000000008152600401611dba9061469b565b60405180910390fd5b6000611dd5611dd0610f01565b612a8c565b611dde43612a8c565b611de891906146cf565b90506000611dfc611df761095e565b612a8c565b82611e0791906146cf565b9050611e1f8284600001612ae390919063ffffffff16565b611e358184600101612ae390919063ffffffff16565b7f7d84a6263ae0d98d3329bd7b46bb4e8d6f98cd35a7adb45c274c8b7fd5ebd5e084611e5f611751565b8b8b8d5167ffffffffffffffff811115611e7c57611e7b612fe2565b5b604051908082528060200260200182016040528015611eaf57816020015b6060815260200190600190039081611e9a5790505b508c88888e604051611ec99998979695949392919061484a565b60405180910390a183945050505050949350505050565b7f08f74ea46ef7894f65eabfb5e6e695de773a000b47c529ab559178069b226401600760009054906101000a900473ffffffffffffffffffffffffffffffffffffffff1682604051611f339291906148fa565b60405180910390a180600760006101000a81548173ffffffffffffffffffffffffffffffffffffffff021916908373ffffffffffffffffffffffffffffffffffffffff16021790555050565b6000600454905090565b6060611faf84848460405180606001604052806029815260200161514f60299139612b12565b90509392505050565b60008111611ffb576040517f08c379a0000000000000000000000000000000000000000000000000000000008152600401611ff290614995565b60405180910390fd5b7f7e3f7f0708a84de9203036abaa450dccc85ad5ff52f78c170f3edb55cf5e88286003548260405161202e929190614187565b60405180910390a18060038190555050565b60007f000000000000000000000000000000000000000000000000000000000000000073ffffffffffffffffffffffffffffffffffffffff16633a46b1a884846040518363ffffffff1660e01b815260040161209d9291906149b5565b60206040518083038186803b1580156120b557600080fd5b505afa1580156120c9573d6000803e3d6000fd5b505050506040513d601f19601f820116820180604052508101906120ed9190613cda565b905092915050565b7fccb45da8d5717e6c4544694297c4ba5cf151d455c9bb0ed4fc7a38411bc0546160045482604051612128929190614187565b60405180910390a18060048190555050565b60006121446111c6565b61214c6111cf565b7f000000000000000000000000000000000000000000000000000000000000000073ffffffffffffffffffffffffffffffffffffffff16638e539e8c856040518263ffffffff1660e01b81526004016121a59190612eae565b60206040518083038186803b1580156121bd57600080fd5b505afa1580156121d1573d6000803e3d6000fd5b505050506040513d601f19601f820116820180604052508101906121f59190613cda565b6121ff91906149de565b6122099190614a67565b9050919050565b60007fbf26d897000000000000000000000000000000000000000000000000000000007bffffffffffffffffffffffffffffffffffffffffffffffffffffffff1916827bffffffffffffffffffffffffffffffffffffffffffffffffffffffff19161480612283575061228282612c26565b5b9050919050565b600760009054906101000a900473ffffffffffffffffffffffffffffffffffffffff1673ffffffffffffffffffffffffffffffffffffffff1663e38335e5348686866000876040518763ffffffff1660e01b81526004016122ef959493929190613fe2565b6000604051808303818588803b15801561230857600080fd5b505af115801561231c573d6000803e3d6000fd5b50505050505050505050565b60007f000000000000000000000000000000000000000000000000000000000000000073ffffffffffffffffffffffffffffffffffffffff163073ffffffffffffffffffffffffffffffffffffffff161480156123a457507f000000000000000000000000000000000000000000000000000000000000000046145b156123d1577f0000000000000000000000000000000000000000000000000000000000000000905061243f565b61243c7f00000000000000000000000000000000000000000000000000000000000000007f00000000000000000000000000000000000000000000000000000000000000007f0000000000000000000000000000000000000000000000000000000000000000612c90565b90505b90565b60008282604051602001612457929190614b10565b60405160208183030381529060405280519060200120905092915050565b6000807f7fffffffffffffffffffffffffffffff5d576e7357a4501ddfe92f46681b20a08360001c11156124b0576000600391509150612579565b601b8560ff16141580156124c85750601c8560ff1614155b156124da576000600491509150612579565b6000600187878787604051600081526020016040526040516124ff9493929190614b47565b6020604051602081039080840390855afa158015612521573d6000803e3d6000fd5b505050602060405103519050600073ffffffffffffffffffffffffffffffffffffffff168173ffffffffffffffffffffffffffffffffffffffff16141561257057600060019250925050612579565b80600092509250505b94509492505050565b6000600481111561259657612595613581565b5b8160048111156125a9576125a8613581565b5b14156125b457612754565b600160048111156125c8576125c7613581565b5b8160048111156125db576125da613581565b5b141561261c576040517f08c379a000000000000000000000000000000000000000000000000000000000815260040161261390614bd8565b60405180910390fd5b600260048111156126305761262f613581565b5b81600481111561264357612642613581565b5b1415612684576040517f08c379a000000000000000000000000000000000000000000000000000000000815260040161267b90614c44565b60405180910390fd5b6003600481111561269857612697613581565b5b8160048111156126ab576126aa613581565b5b14156126ec576040517f08c379a00000000000000000000000000000000000000000000000000000000081526004016126e390614cd6565b60405180910390fd5b6004808111156126ff576126fe613581565b5b81600481111561271257612711613581565b5b1415612753576040517f08c379a000000000000000000000000000000000000000000000000000000000815260040161274a90614d68565b60405180910390fd5b5b50565b60006005600086815260200190815260200160002090508060030160008573ffffffffffffffffffffffffffffffffffffffff1673ffffffffffffffffffffffffffffffffffffffff16815260200190815260200160002060009054906101000a900460ff16156127fd576040517f08c379a00000000000000000000000000000000000000000000000000000000081526004016127f490614dfa565b60405180910390fd5b60018160030160008673ffffffffffffffffffffffffffffffffffffffff1673ffffffffffffffffffffffffffffffffffffffff16815260200190815260200160002060006101000a81548160ff0219169083151502179055506000600281111561286b5761286a613581565b5b60ff168360ff161415612898578181600001600082825461288c9190614131565b92505081905550612956565b600160028111156128ac576128ab613581565b5b60ff168360ff1614156128d957818160010160008282546128cd9190614131565b92505081905550612955565b6002808111156128ec576128eb613581565b5b60ff168360ff161415612919578181600201600082825461290d9190614131565b92505081905550612954565b6040517f08c379a000000000000000000000000000000000000000000000000000000000815260040161294b90614e8c565b60405180910390fd5b5b5b5050505050565b6000806001600084815260200190815260200160002090508060020160009054906101000a900460ff1615612996576007915050612a6d565b8060020160019054906101000a900460ff16156129b7576002915050612a6d565b60006129c284610e93565b90506000811415612a08576040517f08c379a00000000000000000000000000000000000000000000000000000000081526004016129ff90614ef8565b60405180910390fd5b438110612a1a57600092505050612a6d565b6000612a258561134c565b9050438110612a3a5760019350505050612a6d565b612a4385612cca565b8015612a545750612a5385612d11565b5b15612a655760049350505050612a6d565b600393505050505b919050565b600080826000015167ffffffffffffffff16149050919050565b600067ffffffffffffffff8016821115612adb576040517f08c379a0000000000000000000000000000000000000000000000000000000008152600401612ad290614f8a565b60405180910390fd5b819050919050565b808260000160006101000a81548167ffffffffffffffff021916908367ffffffffffffffff1602179055505050565b606082471015612b57576040517f08c379a0000000000000000000000000000000000000000000000000000000008152600401612b4e9061501c565b60405180910390fd5b612b6085612d3c565b612b9f576040517f08c379a0000000000000000000000000000000000000000000000000000000008152600401612b9690615088565b60405180910390fd5b6000808673ffffffffffffffffffffffffffffffffffffffff168587604051612bc891906150e4565b60006040518083038185875af1925050503d8060008114612c05576040519150601f19603f3d011682016040523d82523d6000602084013e612c0a565b606091505b5091509150612c1a828286612d5f565b92505050949350505050565b60007f01ffc9a7000000000000000000000000000000000000000000000000000000007bffffffffffffffffffffffffffffffffffffffffffffffffffffffff1916827bffffffffffffffffffffffffffffffffffffffffffffffffffffffff1916149050919050565b60008383834630604051602001612cab9594939291906150fb565b6040516020818303038152906040528051906020012090509392505050565b60008060056000848152602001908152602001600020905080600201548160010154612cf69190614131565b612d07612d0285610e93565b611677565b1115915050919050565b6000806005600084815260200190815260200160002090508060000154816001015411915050919050565b6000808273ffffffffffffffffffffffffffffffffffffffff163b119050919050565b60608315612d6f57829050612dbf565b600083511115612d825782518084602001fd5b816040517f08c379a0000000000000000000000000000000000000000000000000000000008152600401612db69190612fbb565b60405180910390fd5b9392505050565b6000604051905090565b600080fd5b600080fd5b60007fffffffff0000000000000000000000000000000000000000000000000000000082169050919050565b612e0f81612dda565b8114612e1a57600080fd5b50565b600081359050612e2c81612e06565b92915050565b600060208284031215612e4857612e47612dd0565b5b6000612e5684828501612e1d565b91505092915050565b60008115159050919050565b612e7481612e5f565b82525050565b6000602082019050612e8f6000830184612e6b565b92915050565b6000819050919050565b612ea881612e95565b82525050565b6000602082019050612ec36000830184612e9f565b92915050565b612ed281612e95565b8114612edd57600080fd5b50565b600081359050612eef81612ec9565b92915050565b600060208284031215612f0b57612f0a612dd0565b5b6000612f1984828501612ee0565b91505092915050565b600081519050919050565b600082825260208201905092915050565b60005b83811015612f5c578082015181840152602081019050612f41565b83811115612f6b576000848401525b50505050565b6000601f19601f8301169050919050565b6000612f8d82612f22565b612f978185612f2d565b9350612fa7818560208601612f3e565b612fb081612f71565b840191505092915050565b60006020820190508181036000830152612fd58184612f82565b905092915050565b600080fd5b7f4e487b7100000000000000000000000000000000000000000000000000000000600052604160045260246000fd5b61301a82612f71565b810181811067ffffffffffffffff8211171561303957613038612fe2565b5b80604052505050565b600061304c612dc6565b90506130588282613011565b919050565b600067ffffffffffffffff82111561307857613077612fe2565b5b602082029050602081019050919050565b600080fd5b600073ffffffffffffffffffffffffffffffffffffffff82169050919050565b60006130b98261308e565b9050919050565b6130c9816130ae565b81146130d457600080fd5b50565b6000813590506130e6816130c0565b92915050565b60006130ff6130fa8461305d565b613042565b9050808382526020820190506020840283018581111561312257613121613089565b5b835b8181101561314b578061313788826130d7565b845260208401935050602081019050613124565b5050509392505050565b600082601f83011261316a57613169612fdd565b5b813561317a8482602086016130ec565b91505092915050565b600067ffffffffffffffff82111561319e5761319d612fe2565b5b602082029050602081019050919050565b60006131c26131bd84613183565b613042565b905080838252602082019050602084028301858111156131e5576131e4613089565b5b835b8181101561320e57806131fa8882612ee0565b8452602084019350506020810190506131e7565b5050509392505050565b600082601f83011261322d5761322c612fdd565b5b813561323d8482602086016131af565b91505092915050565b600067ffffffffffffffff82111561326157613260612fe2565b5b602082029050602081019050919050565b600080fd5b600067ffffffffffffffff82111561329257613291612fe2565b5b61329b82612f71565b9050602081019050919050565b82818337600083830152505050565b60006132ca6132c584613277565b613042565b9050828152602081018484840111156132e6576132e5613272565b5b6132f18482856132a8565b509392505050565b600082601f83011261330e5761330d612fdd565b5b813561331e8482602086016132b7565b91505092915050565b600061333a61333584613246565b613042565b9050808382526020820190506020840283018581111561335d5761335c613089565b5b835b818110156133a457803567ffffffffffffffff81111561338257613381612fdd565b5b80860161338f89826132f9565b8552602085019450505060208101905061335f565b5050509392505050565b600082601f8301126133c3576133c2612fdd565b5b81356133d3848260208601613327565b91505092915050565b6000819050919050565b6133ef816133dc565b81146133fa57600080fd5b50565b60008135905061340c816133e6565b92915050565b6000806000806080858703121561342c5761342b612dd0565b5b600085013567ffffffffffffffff81111561344a57613449612dd5565b5b61345687828801613155565b945050602085013567ffffffffffffffff81111561347757613476612dd5565b5b61348387828801613218565b935050604085013567ffffffffffffffff8111156134a4576134a3612dd5565b5b6134b0878288016133ae565b92505060606134c1878288016133fd565b91505092959194509250565b600060ff82169050919050565b6134e3816134cd565b81146134ee57600080fd5b50565b600081359050613500816134da565b92915050565b600080600080600060a0868803121561352257613521612dd0565b5b600061353088828901612ee0565b9550506020613541888289016134f1565b9450506040613552888289016134f1565b9350506060613563888289016133fd565b9250506080613574888289016133fd565b9150509295509295909350565b7f4e487b7100000000000000000000000000000000000000000000000000000000600052602160045260246000fd5b600881106135c1576135c0613581565b5b50565b60008190506135d2826135b0565b919050565b60006135e2826135c4565b9050919050565b6135f2816135d7565b82525050565b600060208201905061360d60008301846135e9565b92915050565b6000806040838503121561362a57613629612dd0565b5b600061363885828601612ee0565b9250506020613649858286016130d7565b9150509250929050565b60006060820190506136686000830186612e9f565b6136756020830185612e9f565b6136826040830184612e9f565b949350505050565b600080604083850312156136a1576136a0612dd0565b5b60006136af85828601612ee0565b92505060206136c0858286016134f1565b9150509250929050565b600080fd5b60008083601f8401126136e5576136e4612fdd565b5b8235905067ffffffffffffffff811115613702576137016136ca565b5b60208301915083600182028301111561371e5761371d613089565b5b9250929050565b6000806000806060858703121561373f5761373e612dd0565b5b600061374d87828801612ee0565b945050602061375e878288016134f1565b935050604085013567ffffffffffffffff81111561377f5761377e612dd5565b5b61378b878288016136cf565b925092505092959194509250565b600067ffffffffffffffff8211156137b4576137b3612fe2565b5b6137bd82612f71565b9050602081019050919050565b60006137dd6137d884613799565b613042565b9050828152602081018484840111156137f9576137f8613272565b5b6138048482856132a8565b509392505050565b600082601f83011261382157613820612fdd565b5b81356138318482602086016137ca565b91505092915050565b6000806000806080858703121561385457613853612dd0565b5b600085013567ffffffffffffffff81111561387257613871612dd5565b5b61387e87828801613155565b945050602085013567ffffffffffffffff81111561389f5761389e612dd5565b5b6138ab87828801613218565b935050604085013567ffffffffffffffff8111156138cc576138cb612dd5565b5b6138d8878288016133ae565b925050606085013567ffffffffffffffff8111156138f9576138f8612dd5565b5b6139058782880161380c565b91505092959194509250565b600061391c8261308e565b9050919050565b600061392e82613911565b9050919050565b61393e81613923565b811461394957600080fd5b50565b60008135905061395b81613935565b92915050565b60006020828403121561397757613976612dd0565b5b60006139858482850161394c565b91505092915050565b60008083601f8401126139a4576139a3612fdd565b5b8235905067ffffffffffffffff8111156139c1576139c06136ca565b5b6020830191508360018202830111156139dd576139dc613089565b5b9250929050565b600080600080606085870312156139fe576139fd612dd0565b5b6000613a0c878288016130d7565b9450506020613a1d87828801612ee0565b935050604085013567ffffffffffffffff811115613a3e57613a3d612dd5565b5b613a4a8782880161398e565b925092505092959194509250565b613a61816130ae565b82525050565b6000602082019050613a7c6000830184613a58565b92915050565b613a8b816133dc565b82525050565b6000602082019050613aa66000830184613a82565b92915050565b60008060408385031215613ac357613ac2612dd0565b5b6000613ad1858286016130d7565b9250506020613ae285828601612ee0565b9150509250929050565b6000819050919050565b6000613b11613b0c613b078461308e565b613aec565b61308e565b9050919050565b6000613b2382613af6565b9050919050565b6000613b3582613b18565b9050919050565b613b4581613b2a565b82525050565b6000602082019050613b606000830184613b3c565b92915050565b7f476f7665726e6f723a206f6e6c79476f7665726e616e63650000000000000000600082015250565b6000613b9c601883612f2d565b9150613ba782613b66565b602082019050919050565b60006020820190508181036000830152613bcb81613b8f565b9050919050565b7f4e487b7100000000000000000000000000000000000000000000000000000000600052602260045260246000fd5b60006002820490506001821680613c1957607f821691505b60208210811415613c2d57613c2c613bd2565b5b50919050565b7f476f7665726e6f723a2070726f706f73616c206e6f742073756363657373667560008201527f6c00000000000000000000000000000000000000000000000000000000000000602082015250565b6000613c8f602183612f2d565b9150613c9a82613c33565b604082019050919050565b60006020820190508181036000830152613cbe81613c82565b9050919050565b600081519050613cd481612ec9565b92915050565b600060208284031215613cf057613cef612dd0565b5b6000613cfe84828501613cc5565b91505092915050565b600081519050919050565b600082825260208201905092915050565b6000819050602082019050919050565b613d3c816130ae565b82525050565b6000613d4e8383613d33565b60208301905092915050565b6000602082019050919050565b6000613d7282613d07565b613d7c8185613d12565b9350613d8783613d23565b8060005b83811015613db8578151613d9f8882613d42565b9750613daa83613d5a565b925050600181019050613d8b565b5085935050505092915050565b600081519050919050565b600082825260208201905092915050565b6000819050602082019050919050565b613dfa81612e95565b82525050565b6000613e0c8383613df1565b60208301905092915050565b6000602082019050919050565b6000613e3082613dc5565b613e3a8185613dd0565b9350613e4583613de1565b8060005b83811015613e76578151613e5d8882613e00565b9750613e6883613e18565b925050600181019050613e49565b5085935050505092915050565b600081519050919050565b600082825260208201905092915050565b6000819050602082019050919050565b600081519050919050565b600082825260208201905092915050565b6000613ed682613eaf565b613ee08185613eba565b9350613ef0818560208601612f3e565b613ef981612f71565b840191505092915050565b6000613f108383613ecb565b905092915050565b6000602082019050919050565b6000613f3082613e83565b613f3a8185613e8e565b935083602082028501613f4c85613e9f565b8060005b85811015613f885784840389528151613f698582613f04565b9450613f7483613f18565b925060208a01995050600181019050613f50565b50829750879550505050505092915050565b6000819050919050565b60008160001b9050919050565b6000613fcc613fc7613fc284613f9a565b613fa4565b6133dc565b9050919050565b613fdc81613fb1565b82525050565b600060a0820190508181036000830152613ffc8188613d67565b905081810360208301526140108187613e25565b905081810360408301526140248186613f25565b90506140336060830185613fd3565b6140406080830184613a82565b9695505050505050565b600081519050614059816133e6565b92915050565b60006020828403121561407557614074612dd0565b5b60006140838482850161404a565b91505092915050565b600060c08201905081810360008301526140a68189613d67565b905081810360208301526140ba8188613e25565b905081810360408301526140ce8187613f25565b90506140dd6060830186613fd3565b6140ea6080830185613a82565b6140f760a0830184612e9f565b979650505050505050565b7f4e487b7100000000000000000000000000000000000000000000000000000000600052601160045260246000fd5b600061413c82612e95565b915061414783612e95565b9250827fffffffffffffffffffffffffffffffffffffffffffffffffffffffffffffffff0382111561417c5761417b614102565b5b828201905092915050565b600060408201905061419c6000830185612e9f565b6141a96020830184612e9f565b9392505050565b6141b9816134cd565b82525050565b60006060820190506141d46000830186613a82565b6141e16020830185612e9f565b6141ee60408301846141b0565b949350505050565b600060808201905081810360008301526142108187613d67565b905081810360208301526142248186613e25565b905081810360408301526142388185613f25565b90506142476060830184613a82565b95945050505050565b7f476f7665726e6f72566f74657351756f72756d4672616374696f6e3a2071756f60008201527f72756d4e756d657261746f72206f7665722071756f72756d44656e6f6d696e6160208201527f746f720000000000000000000000000000000000000000000000000000000000604082015250565b60006142d2604383612f2d565b91506142dd82614250565b606082019050919050565b60006020820190508181036000830152614301816142c5565b9050919050565b7f476f7665726e6f723a20766f7465206e6f742063757272656e746c792061637460008201527f6976650000000000000000000000000000000000000000000000000000000000602082015250565b6000614364602383612f2d565b915061436f82614308565b604082019050919050565b6000602082019050818103600083015261439381614357565b9050919050565b60006080820190506143af6000830187612e9f565b6143bc60208301866141b0565b6143c96040830185612e9f565b81810360608301526143db8184612f82565b905095945050505050565b6143ef81612e5f565b81146143fa57600080fd5b50565b60008151905061440c816143e6565b92915050565b60006020828403121561442857614427612dd0565b5b6000614436848285016143fd565b91505092915050565b600061444a82612e95565b915061445583612e95565b92508282101561446857614467614102565b5b828203905092915050565b7f476f7665726e6f72436f6d7061746962696c697479427261766f3a2070726f7060008201527f6f73657220766f7465732062656c6f772070726f706f73616c2074687265736860208201527f6f6c640000000000000000000000000000000000000000000000000000000000604082015250565b60006144f5604383612f2d565b915061450082614473565b606082019050919050565b60006020820190508181036000830152614524816144e8565b9050919050565b7f476f7665726e6f723a20696e76616c69642070726f706f73616c206c656e677460008201527f6800000000000000000000000000000000000000000000000000000000000000602082015250565b6000614587602183612f2d565b91506145928261452b565b604082019050919050565b600060208201905081810360008301526145b68161457a565b9050919050565b7f476f7665726e6f723a20656d7074792070726f706f73616c0000000000000000600082015250565b60006145f3601883612f2d565b91506145fe826145bd565b602082019050919050565b60006020820190508181036000830152614622816145e6565b9050919050565b7f476f7665726e6f723a2070726f706f73616c20616c726561647920657869737460008201527f7300000000000000000000000000000000000000000000000000000000000000602082015250565b6000614685602183612f2d565b915061469082614629565b604082019050919050565b600060208201905081810360008301526146b481614678565b9050919050565b600067ffffffffffffffff82169050919050565b60006146da826146bb565b91506146e5836146bb565b92508267ffffffffffffffff0382111561470257614701614102565b5b828201905092915050565b600081519050919050565b600082825260208201905092915050565b6000819050602082019050919050565b600082825260208201905092915050565b600061475582612f22565b61475f8185614739565b935061476f818560208601612f3e565b61477881612f71565b840191505092915050565b600061478f838361474a565b905092915050565b6000602082019050919050565b60006147af8261470d565b6147b98185614718565b9350836020820285016147cb85614729565b8060005b8581101561480757848403895281516147e88582614783565b94506147f383614797565b925060208a019950506001810190506147cf565b50829750879550505050505092915050565b600061483461482f61482a846146bb565b613aec565b612e95565b9050919050565b61484481614819565b82525050565b600061012082019050614860600083018c612e9f565b61486d602083018b613a58565b818103604083015261487f818a613d67565b905081810360608301526148938189613e25565b905081810360808301526148a781886147a4565b905081810360a08301526148bb8187613f25565b90506148ca60c083018661483b565b6148d760e083018561483b565b8181036101008301526148ea8184612f82565b90509a9950505050505050505050565b600060408201905061490f6000830185613a58565b61491c6020830184613a58565b9392505050565b7f476f7665726e6f7253657474696e67733a20766f74696e6720706572696f642060008201527f746f6f206c6f7700000000000000000000000000000000000000000000000000602082015250565b600061497f602783612f2d565b915061498a82614923565b604082019050919050565b600060208201905081810360008301526149ae81614972565b9050919050565b60006040820190506149ca6000830185613a58565b6149d76020830184612e9f565b9392505050565b60006149e982612e95565b91506149f483612e95565b9250817fffffffffffffffffffffffffffffffffffffffffffffffffffffffffffffffff0483118215151615614a2d57614a2c614102565b5b828202905092915050565b7f4e487b7100000000000000000000000000000000000000000000000000000000600052601260045260246000fd5b6000614a7282612e95565b9150614a7d83612e95565b925082614a8d57614a8c614a38565b5b828204905092915050565b600081905092915050565b7f1901000000000000000000000000000000000000000000000000000000000000600082015250565b6000614ad9600283614a98565b9150614ae482614aa3565b600282019050919050565b6000819050919050565b614b0a614b05826133dc565b614aef565b82525050565b6000614b1b82614acc565b9150614b278285614af9565b602082019150614b378284614af9565b6020820191508190509392505050565b6000608082019050614b5c6000830187613a82565b614b6960208301866141b0565b614b766040830185613a82565b614b836060830184613a82565b95945050505050565b7f45434453413a20696e76616c6964207369676e61747572650000000000000000600082015250565b6000614bc2601883612f2d565b9150614bcd82614b8c565b602082019050919050565b60006020820190508181036000830152614bf181614bb5565b9050919050565b7f45434453413a20696e76616c6964207369676e6174757265206c656e67746800600082015250565b6000614c2e601f83612f2d565b9150614c3982614bf8565b602082019050919050565b60006020820190508181036000830152614c5d81614c21565b9050919050565b7f45434453413a20696e76616c6964207369676e6174757265202773272076616c60008201527f7565000000000000000000000000000000000000000000000000000000000000602082015250565b6000614cc0602283612f2d565b9150614ccb82614c64565b604082019050919050565b60006020820190508181036000830152614cef81614cb3565b9050919050565b7f45434453413a20696e76616c6964207369676e6174757265202776272076616c60008201527f7565000000000000000000000000000000000000000000000000000000000000602082015250565b6000614d52602283612f2d565b9150614d5d82614cf6565b604082019050919050565b60006020820190508181036000830152614d8181614d45565b9050919050565b7f476f7665726e6f72566f74696e6753696d706c653a20766f746520616c72656160008201527f6479206361737400000000000000000000000000000000000000000000000000602082015250565b6000614de4602783612f2d565b9150614def82614d88565b604082019050919050565b60006020820190508181036000830152614e1381614dd7565b9050919050565b7f476f7665726e6f72566f74696e6753696d706c653a20696e76616c696420766160008201527f6c756520666f7220656e756d20566f7465547970650000000000000000000000602082015250565b6000614e76603583612f2d565b9150614e8182614e1a565b604082019050919050565b60006020820190508181036000830152614ea581614e69565b9050919050565b7f476f7665726e6f723a20756e6b6e6f776e2070726f706f73616c206964000000600082015250565b6000614ee2601d83612f2d565b9150614eed82614eac565b602082019050919050565b60006020820190508181036000830152614f1181614ed5565b9050919050565b7f53616665436173743a2076616c756520646f65736e27742066697420696e203660008201527f3420626974730000000000000000000000000000000000000000000000000000602082015250565b6000614f74602683612f2d565b9150614f7f82614f18565b604082019050919050565b60006020820190508181036000830152614fa381614f67565b9050919050565b7f416464726573733a20696e73756666696369656e742062616c616e636520666f60008201527f722063616c6c0000000000000000000000000000000000000000000000000000602082015250565b6000615006602683612f2d565b915061501182614faa565b604082019050919050565b6000602082019050818103600083015261503581614ff9565b9050919050565b7f416464726573733a2063616c6c20746f206e6f6e2d636f6e7472616374000000600082015250565b6000615072601d83612f2d565b915061507d8261503c565b602082019050919050565b600060208201905081810360008301526150a181615065565b9050919050565b600081905092915050565b60006150be82613eaf565b6150c881856150a8565b93506150d8818560208601612f3e565b80840191505092915050565b60006150f082846150b3565b915081905092915050565b600060a0820190506151106000830188613a82565b61511d6020830187613a82565b61512a6040830186613a82565b6151376060830185612e9f565b6151446080830184613a58565b969550505050505056fe416464726573733a206c6f772d6c6576656c2063616c6c20776974682076616c7565206661696c6564a2646970667358221220e294ca24b7bcdc9332338be459c2c7a7b75643a5ec4cb5309b3ab58527703c8e64736f6c63430008090033",
  "devdoc": {
    "kind": "dev",
    "methods": {
      "COUNTING_MODE()": {
        "details": "See {IGovernor-COUNTING_MODE}."
      },
      "castVote(uint256,uint8)": {
        "details": "See {IGovernor-castVote}."
      },
      "castVoteBySig(uint256,uint8,uint8,bytes32,bytes32)": {
        "details": "See {IGovernor-castVoteBySig}."
      },
      "castVoteWithReason(uint256,uint8,string)": {
        "details": "See {IGovernor-castVoteWithReason}."
      },
      "execute(address[],uint256[],bytes[],bytes32)": {
        "details": "See {IGovernor-execute}."
      },
      "hasVoted(uint256,address)": {
        "details": "See {IGovernor-hasVoted}."
      },
      "hashProposal(address[],uint256[],bytes[],bytes32)": {
        "details": "See {IGovernor-hashProposal}. The proposal id is produced by hashing the RLC encoded `targets` array, the `values` array, the `calldatas` array and the descriptionHash (bytes32 which itself is the keccak256 hash of the description string). This proposal id can be produced from the proposal data which is part of the {ProposalCreated} event. It can even be computed in advance, before the proposal is submitted. Note that the chainId and the governor address are not part of the proposal id computation. Consequently, the same proposal (with same operation and same description) will have the same id if submitted on multiple governors accross multiple networks. This also means that in order to execute the same operation twice (on the same governor) the proposer will have to change the description in order to avoid proposal id conflicts."
      },
      "name()": {
        "details": "See {IGovernor-name}."
      },
      "proposalDeadline(uint256)": {
        "details": "See {IGovernor-proposalDeadline}."
      },
      "proposalEta(uint256)": {
        "details": "Public accessor to check the eta of a queued proposal"
      },
      "proposalSnapshot(uint256)": {
        "details": "See {IGovernor-proposalSnapshot}."
      },
      "proposalVotes(uint256)": {
        "details": "Accessor to the internal vote counts."
      },
      "queue(address[],uint256[],bytes[],bytes32)": {
        "details": "Function to queue a proposal to the timelock."
      },
      "quorumDenominator()": {
        "details": "Returns the quorum denominator. Defaults to 100, but may be overridden."
      },
      "quorumNumerator()": {
        "details": "Returns the current quorum numerator. See {quorumDenominator}."
      },
      "relay(address,uint256,bytes)": {
        "details": "Relays a transaction or function call to an arbitrary target. In cases where the governance executor is some contract other than the governor itself, like when using a timelock, this function can be invoked in a governance proposal to recover tokens or Ether that was sent to the governor contract by mistake. Note that if the executor is simply the governor itself, use of `relay` is redundant."
      },
      "setProposalThreshold(uint256)": {
        "details": "Update the proposal threshold. This operation can only be performed through a governance proposal. Emits a {ProposalThresholdSet} event."
      },
      "setVotingDelay(uint256)": {
        "details": "Update the voting delay. This operation can only be performed through a governance proposal. Emits a {VotingDelaySet} event."
      },
      "setVotingPeriod(uint256)": {
        "details": "Update the voting period. This operation can only be performed through a governance proposal. Emits a {VotingPeriodSet} event."
      },
      "timelock()": {
        "details": "Public accessor to check the address of the timelock"
      },
      "updateQuorumNumerator(uint256)": {
        "details": "Changes the quorum numerator. Emits a {QuorumNumeratorUpdated} event. Requirements: - Must be called through a governance proposal. - New numerator must be smaller or equal to the denominator."
      },
      "updateTimelock(address)": {
        "details": "Public endpoint to update the underlying timelock instance. Restricted to the timelock itself, so updates must be proposed, scheduled, and executed through governance proposals. CAUTION: It is not recommended to change the timelock while there are other queued governance proposals."
      },
      "version()": {
        "details": "See {IGovernor-version}."
      }
    },
    "version": 1
  },
  "userdoc": {
    "kind": "user",
    "methods": {},
    "version": 1
  },
  "storageLayout": {
    "storage": [
      {
        "astId": 530,
        "contract": "contracts/Governance_standard/GovernorContract.sol:GovernorContract",
        "label": "_name",
        "offset": 0,
        "slot": "0",
        "type": "t_string_storage"
      },
      {
        "astId": 535,
        "contract": "contracts/Governance_standard/GovernorContract.sol:GovernorContract",
        "label": "_proposals",
        "offset": 0,
        "slot": "1",
        "type": "t_mapping(t_uint256,t_struct(ProposalCore)528_storage)"
      },
      {
        "astId": 2588,
        "contract": "contracts/Governance_standard/GovernorContract.sol:GovernorContract",
        "label": "_votingDelay",
        "offset": 0,
        "slot": "2",
        "type": "t_uint256"
      },
      {
        "astId": 2590,
        "contract": "contracts/Governance_standard/GovernorContract.sol:GovernorContract",
        "label": "_votingPeriod",
        "offset": 0,
        "slot": "3",
        "type": "t_uint256"
      },
      {
        "astId": 2592,
        "contract": "contracts/Governance_standard/GovernorContract.sol:GovernorContract",
        "label": "_proposalThreshold",
        "offset": 0,
        "slot": "4",
        "type": "t_uint256"
      },
      {
        "astId": 2382,
        "contract": "contracts/Governance_standard/GovernorContract.sol:GovernorContract",
        "label": "_proposalVotes",
        "offset": 0,
        "slot": "5",
        "type": "t_mapping(t_uint256,t_struct(ProposalVote)2377_storage)"
      },
      {
        "astId": 3183,
        "contract": "contracts/Governance_standard/GovernorContract.sol:GovernorContract",
        "label": "_quorumNumerator",
        "offset": 0,
        "slot": "6",
        "type": "t_uint256"
      },
      {
        "astId": 2771,
        "contract": "contracts/Governance_standard/GovernorContract.sol:GovernorContract",
        "label": "_timelock",
        "offset": 0,
        "slot": "7",
        "type": "t_contract(TimelockController)2356"
      },
      {
        "astId": 2775,
        "contract": "contracts/Governance_standard/GovernorContract.sol:GovernorContract",
        "label": "_timelockIds",
        "offset": 0,
        "slot": "8",
        "type": "t_mapping(t_uint256,t_bytes32)"
      },
      {
        "astId": 6933,
        "contract": "contracts/Governance_standard/GovernorContract.sol:GovernorContract",
        "label": "s_votingDelay",
        "offset": 0,
        "slot": "9",
        "type": "t_uint256"
      },
      {
        "astId": 6935,
        "contract": "contracts/Governance_standard/GovernorContract.sol:GovernorContract",
        "label": "s_votingPeriod",
        "offset": 0,
        "slot": "10",
        "type": "t_uint256"
      }
    ],
    "types": {
      "t_address": {
        "encoding": "inplace",
        "label": "address",
        "numberOfBytes": "20"
      },
      "t_bool": {
        "encoding": "inplace",
        "label": "bool",
        "numberOfBytes": "1"
      },
      "t_bytes32": {
        "encoding": "inplace",
        "label": "bytes32",
        "numberOfBytes": "32"
      },
      "t_contract(TimelockController)2356": {
        "encoding": "inplace",
        "label": "contract TimelockController",
        "numberOfBytes": "20"
      },
      "t_mapping(t_address,t_bool)": {
        "encoding": "mapping",
        "key": "t_address",
        "label": "mapping(address => bool)",
        "numberOfBytes": "32",
        "value": "t_bool"
      },
      "t_mapping(t_uint256,t_bytes32)": {
        "encoding": "mapping",
        "key": "t_uint256",
        "label": "mapping(uint256 => bytes32)",
        "numberOfBytes": "32",
        "value": "t_bytes32"
      },
      "t_mapping(t_uint256,t_struct(ProposalCore)528_storage)": {
        "encoding": "mapping",
        "key": "t_uint256",
        "label": "mapping(uint256 => struct Governor.ProposalCore)",
        "numberOfBytes": "32",
        "value": "t_struct(ProposalCore)528_storage"
      },
      "t_mapping(t_uint256,t_struct(ProposalVote)2377_storage)": {
        "encoding": "mapping",
        "key": "t_uint256",
        "label": "mapping(uint256 => struct GovernorCountingSimple.ProposalVote)",
        "numberOfBytes": "32",
        "value": "t_struct(ProposalVote)2377_storage"
      },
      "t_string_storage": {
        "encoding": "bytes",
        "label": "string",
        "numberOfBytes": "32"
      },
      "t_struct(BlockNumber)5639_storage": {
        "encoding": "inplace",
        "label": "struct Timers.BlockNumber",
        "members": [
          {
            "astId": 5638,
            "contract": "contracts/Governance_standard/GovernorContract.sol:GovernorContract",
            "label": "_deadline",
            "offset": 0,
            "slot": "0",
            "type": "t_uint64"
          }
        ],
        "numberOfBytes": "32"
      },
      "t_struct(ProposalCore)528_storage": {
        "encoding": "inplace",
        "label": "struct Governor.ProposalCore",
        "members": [
          {
            "astId": 520,
            "contract": "contracts/Governance_standard/GovernorContract.sol:GovernorContract",
            "label": "voteStart",
            "offset": 0,
            "slot": "0",
            "type": "t_struct(BlockNumber)5639_storage"
          },
          {
            "astId": 523,
            "contract": "contracts/Governance_standard/GovernorContract.sol:GovernorContract",
            "label": "voteEnd",
            "offset": 0,
            "slot": "1",
            "type": "t_struct(BlockNumber)5639_storage"
          },
          {
            "astId": 525,
            "contract": "contracts/Governance_standard/GovernorContract.sol:GovernorContract",
            "label": "executed",
            "offset": 0,
            "slot": "2",
            "type": "t_bool"
          },
          {
            "astId": 527,
            "contract": "contracts/Governance_standard/GovernorContract.sol:GovernorContract",
            "label": "canceled",
            "offset": 1,
            "slot": "2",
            "type": "t_bool"
          }
        ],
        "numberOfBytes": "96"
      },
      "t_struct(ProposalVote)2377_storage": {
        "encoding": "inplace",
        "label": "struct GovernorCountingSimple.ProposalVote",
        "members": [
          {
            "astId": 2368,
            "contract": "contracts/Governance_standard/GovernorContract.sol:GovernorContract",
            "label": "againstVotes",
            "offset": 0,
            "slot": "0",
            "type": "t_uint256"
          },
          {
            "astId": 2370,
            "contract": "contracts/Governance_standard/GovernorContract.sol:GovernorContract",
            "label": "forVotes",
            "offset": 0,
            "slot": "1",
            "type": "t_uint256"
          },
          {
            "astId": 2372,
            "contract": "contracts/Governance_standard/GovernorContract.sol:GovernorContract",
            "label": "abstainVotes",
            "offset": 0,
            "slot": "2",
            "type": "t_uint256"
          },
          {
            "astId": 2376,
            "contract": "contracts/Governance_standard/GovernorContract.sol:GovernorContract",
            "label": "hasVoted",
            "offset": 0,
            "slot": "3",
            "type": "t_mapping(t_address,t_bool)"
          }
        ],
        "numberOfBytes": "128"
      },
      "t_uint256": {
        "encoding": "inplace",
        "label": "uint256",
        "numberOfBytes": "32"
      },
      "t_uint64": {
        "encoding": "inplace",
        "label": "uint64",
        "numberOfBytes": "8"
      }
    }
  }
}