{
  "address": "0xa513E6E4b8f2a923D98304ec87F64353C4D5C853",
  "abi": [
    {
      "anonymous": false,
      "inputs": [
        {
          "indexed": true,
          "internalType": "address",
          "name": "previousOwner",
          "type": "address"
        },
        {
          "indexed": true,
          "internalType": "address",
          "name": "newOwner",
          "type": "address"
        }
      ],
      "name": "OwnershipTransferred",
      "type": "event"
    },
    {
      "inputs": [
        {
          "internalType": "uint256[11]",
          "name": "newplayers",
          "type": "uint256[11]"
        }
      ],
      "name": "changeplayers",
      "outputs": [],
      "stateMutability": "nonpayable",
      "type": "function"
    },
    {
      "inputs": [],
      "name": "owner",
      "outputs": [
        {
          "internalType": "address",
          "name": "",
          "type": "address"
        }
      ],
      "stateMutability": "view",
      "type": "function"
    },
    {
      "inputs": [],
      "name": "renounceOwnership",
      "outputs": [],
      "stateMutability": "nonpayable",
      "type": "function"
    },
    {
      "inputs": [],
      "name": "showplayers",
      "outputs": [
        {
          "internalType": "uint256[11]",
          "name": "",
          "type": "uint256[11]"
        }
      ],
      "stateMutability": "view",
      "type": "function"
    },
    {
      "inputs": [
        {
          "internalType": "address",
          "name": "newOwner",
          "type": "address"
        }
      ],
      "name": "transferOwnership",
      "outputs": [],
      "stateMutability": "nonpayable",
      "type": "function"
    }
  ],
  "transactionHash": "0x3eb02b05af5464a311ceecdb1bf917e126dd92259516bd1358f15d4c95f15537",
  "args": [],
  "numDeployments": 1,
  "solcInputHash": "bb7c541b40c3718192f605d09f0e919f",
  "bytecode": "0x608060405234801561001057600080fd5b5061002d61002261003260201b60201c565b61003a60201b60201c565b6100fe565b600033905090565b60008060009054906101000a900473ffffffffffffffffffffffffffffffffffffffff169050816000806101000a81548173ffffffffffffffffffffffffffffffffffffffff021916908373ffffffffffffffffffffffffffffffffffffffff1602179055508173ffffffffffffffffffffffffffffffffffffffff168173ffffffffffffffffffffffffffffffffffffffff167f8be0079c531659141344cd1fd0a4f28419497f9722a3daafe3b4186f6b6457e060405160405180910390a35050565b6109268061010d6000396000f3fe608060405234801561001057600080fd5b50600436106100575760003560e01c8063715018a61461005c5780638da5cb5b14610066578063f2fde38b14610084578063fd00e42f146100a0578063fdfb1340146100bc575b600080fd5b6100646100da565b005b61006e610162565b60405161007b91906104ec565b60405180910390f35b61009e60048036038101906100999190610542565b61018b565b005b6100ba60048036038101906100b591906106ec565b610283565b005b6100c4610314565b6040516100d191906107c5565b60405180910390f35b6100e261035f565b73ffffffffffffffffffffffffffffffffffffffff16610100610162565b73ffffffffffffffffffffffffffffffffffffffff1614610156576040517f08c379a000000000000000000000000000000000000000000000000000000000815260040161014d9061083e565b60405180910390fd5b6101606000610367565b565b60008060009054906101000a900473ffffffffffffffffffffffffffffffffffffffff16905090565b61019361035f565b73ffffffffffffffffffffffffffffffffffffffff166101b1610162565b73ffffffffffffffffffffffffffffffffffffffff1614610207576040517f08c379a00000000000000000000000000000000000000000000000000000000081526004016101fe9061083e565b60405180910390fd5b600073ffffffffffffffffffffffffffffffffffffffff168173ffffffffffffffffffffffffffffffffffffffff161415610277576040517f08c379a000000000000000000000000000000000000000000000000000000000815260040161026e906108d0565b60405180910390fd5b61028081610367565b50565b61028b61035f565b73ffffffffffffffffffffffffffffffffffffffff166102a9610162565b73ffffffffffffffffffffffffffffffffffffffff16146102ff576040517f08c379a00000000000000000000000000000000000000000000000000000000081526004016102f69061083e565b60405180910390fd5b80600190600b61031092919061042b565b5050565b61031c61046b565b6001600b806020026040519081016040528092919082600b8015610355576020028201915b815481526020019060010190808311610341575b5050505050905090565b600033905090565b60008060009054906101000a900473ffffffffffffffffffffffffffffffffffffffff169050816000806101000a81548173ffffffffffffffffffffffffffffffffffffffff021916908373ffffffffffffffffffffffffffffffffffffffff1602179055508173ffffffffffffffffffffffffffffffffffffffff168173ffffffffffffffffffffffffffffffffffffffff167f8be0079c531659141344cd1fd0a4f28419497f9722a3daafe3b4186f6b6457e060405160405180910390a35050565b82600b810192821561045a579160200282015b8281111561045957825182559160200191906001019061043e565b5b509050610467919061048e565b5090565b604051806101600160405280600b90602082028036833780820191505090505090565b5b808211156104a757600081600090555060010161048f565b5090565b600073ffffffffffffffffffffffffffffffffffffffff82169050919050565b60006104d6826104ab565b9050919050565b6104e6816104cb565b82525050565b600060208201905061050160008301846104dd565b92915050565b6000604051905090565b600080fd5b61051f816104cb565b811461052a57600080fd5b50565b60008135905061053c81610516565b92915050565b60006020828403121561055857610557610511565b5b60006105668482850161052d565b91505092915050565b600080fd5b6000601f19601f8301169050919050565b7f4e487b7100000000000000000000000000000000000000000000000000000000600052604160045260246000fd5b6105bd82610574565b810181811067ffffffffffffffff821117156105dc576105db610585565b5b80604052505050565b60006105ef610507565b90506105fb82826105b4565b919050565b600067ffffffffffffffff82111561061b5761061a610585565b5b602082029050919050565b600080fd5b6000819050919050565b61063e8161062b565b811461064957600080fd5b50565b60008135905061065b81610635565b92915050565b600061067461066f84610600565b6105e5565b9050806020840283018581111561068e5761068d610626565b5b835b818110156106b757806106a3888261064c565b845260208401935050602081019050610690565b5050509392505050565b600082601f8301126106d6576106d561056f565b5b600b6106e3848285610661565b91505092915050565b6000610160828403121561070357610702610511565b5b6000610711848285016106c1565b91505092915050565b6000600b9050919050565b600081905092915050565b6000819050919050565b6107438161062b565b82525050565b6000610755838361073a565b60208301905092915050565b6000602082019050919050565b6107778161071a565b6107818184610725565b925061078c82610730565b8060005b838110156107bd5781516107a48782610749565b96506107af83610761565b925050600181019050610790565b505050505050565b6000610160820190506107db600083018461076e565b92915050565b600082825260208201905092915050565b7f4f776e61626c653a2063616c6c6572206973206e6f7420746865206f776e6572600082015250565b60006108286020836107e1565b9150610833826107f2565b602082019050919050565b600060208201905081810360008301526108578161081b565b9050919050565b7f4f776e61626c653a206e6577206f776e657220697320746865207a65726f206160008201527f6464726573730000000000000000000000000000000000000000000000000000602082015250565b60006108ba6026836107e1565b91506108c58261085e565b604082019050919050565b600060208201905081810360008301526108e9816108ad565b905091905056fea264697066735822122006f967c973e0ba2bfef1939f62456012c78319e3fa204dc5969a249f0a6bdc2964736f6c63430008090033",
  "devdoc": {
    "kind": "dev",
    "methods": {
      "owner()": {
        "details": "Returns the address of the current owner."
      },
      "renounceOwnership()": {
        "details": "Leaves the contract without owner. It will not be possible to call `onlyOwner` functions anymore. Can only be called by the current owner. NOTE: Renouncing ownership will leave the contract without an owner, thereby removing any functionality that is only available to the owner."
      },
      "transferOwnership(address)": {
        "details": "Transfers ownership of the contract to a new account (`newOwner`). Can only be called by the current owner."
      }
    },
    "version": 1
  },
  "userdoc": {
    "kind": "user",
    "methods": {},
    "version": 1
  },
  "storageLayout": {
    "storage": [
      {
        "astId": 389,
        "contract": "contracts/TeamLineup.sol:TeamLineup",
        "label": "_owner",
        "offset": 0,
        "slot": "0",
        "type": "t_address"
      },
      {
        "astId": 7211,
        "contract": "contracts/TeamLineup.sol:TeamLineup",
        "label": "players",
        "offset": 0,
        "slot": "1",
        "type": "t_array(t_uint256)11_storage"
      }
    ],
    "types": {
      "t_address": {
        "encoding": "inplace",
        "label": "address",
        "numberOfBytes": "20"
      },
      "t_array(t_uint256)11_storage": {
        "base": "t_uint256",
        "encoding": "inplace",
        "label": "uint256[11]",
        "numberOfBytes": "352"
      },
      "t_uint256": {
        "encoding": "inplace",
        "label": "uint256",
        "numberOfBytes": "32"
      }
    }
  }
}