{
  "_format": "hh-sol-artifact-1",
  "contractName": "BuyTeam",
  "sourceName": "contracts/BuyTeam.sol",
  "abi": [
    {
      "anonymous": false,
      "inputs": [
        {
          "indexed": true,
          "internalType": "address",
          "name": "previousOwner",
          "type": "address"
        },
        {
          "indexed": true,
          "internalType": "address",
          "name": "newOwner",
          "type": "address"
        }
      ],
      "name": "OwnershipTransferred",
      "type": "event"
    },
    {
      "inputs": [
        {
          "components": [
            {
              "internalType": "uint256",
              "name": "number",
              "type": "uint256"
            },
            {
              "internalType": "string",
              "name": "name",
              "type": "string"
            },
            {
              "internalType": "uint256",
              "name": "amount",
              "type": "uint256"
            },
            {
              "components": [
                {
                  "internalType": "uint256",
                  "name": "innings",
                  "type": "uint256"
                },
                {
                  "internalType": "uint256",
                  "name": "highestscore",
                  "type": "uint256"
                },
                {
                  "internalType": "uint256",
                  "name": "halfcentury",
                  "type": "uint256"
                },
                {
                  "internalType": "uint256",
                  "name": "century",
                  "type": "uint256"
                },
                {
                  "internalType": "uint256",
                  "name": "scoringrate",
                  "type": "uint256"
                }
              ],
              "internalType": "struct BuyTeam.Batsman",
              "name": "batsmanstats",
              "type": "tuple"
            },
            {
              "components": [
                {
                  "internalType": "uint256",
                  "name": "overs",
                  "type": "uint256"
                },
                {
                  "internalType": "uint256",
                  "name": "wickets",
                  "type": "uint256"
                },
                {
                  "internalType": "uint256",
                  "name": "mostwickets",
                  "type": "uint256"
                },
                {
                  "internalType": "uint256",
                  "name": "economyrate",
                  "type": "uint256"
                }
              ],
              "internalType": "struct BuyTeam.Bolwer",
              "name": "bowlerstats",
              "type": "tuple"
            }
          ],
          "internalType": "struct BuyTeam.Player",
          "name": "p",
          "type": "tuple"
        }
      ],
      "name": "addplayers",
      "outputs": [
        {
          "internalType": "bool",
          "name": "",
          "type": "bool"
        }
      ],
      "stateMutability": "nonpayable",
      "type": "function"
    },
    {
      "inputs": [
        {
          "components": [
            {
              "internalType": "uint256",
              "name": "number",
              "type": "uint256"
            },
            {
              "internalType": "string",
              "name": "name",
              "type": "string"
            },
            {
              "internalType": "uint256",
              "name": "amount",
              "type": "uint256"
            },
            {
              "components": [
                {
                  "internalType": "uint256",
                  "name": "innings",
                  "type": "uint256"
                },
                {
                  "internalType": "uint256",
                  "name": "highestscore",
                  "type": "uint256"
                },
                {
                  "internalType": "uint256",
                  "name": "halfcentury",
                  "type": "uint256"
                },
                {
                  "internalType": "uint256",
                  "name": "century",
                  "type": "uint256"
                },
                {
                  "internalType": "uint256",
                  "name": "scoringrate",
                  "type": "uint256"
                }
              ],
              "internalType": "struct BuyTeam.Batsman",
              "name": "batsmanstats",
              "type": "tuple"
            },
            {
              "components": [
                {
                  "internalType": "uint256",
                  "name": "overs",
                  "type": "uint256"
                },
                {
                  "internalType": "uint256",
                  "name": "wickets",
                  "type": "uint256"
                },
                {
                  "internalType": "uint256",
                  "name": "mostwickets",
                  "type": "uint256"
                },
                {
                  "internalType": "uint256",
                  "name": "economyrate",
                  "type": "uint256"
                }
              ],
              "internalType": "struct BuyTeam.Bolwer",
              "name": "bowlerstats",
              "type": "tuple"
            }
          ],
          "internalType": "struct BuyTeam.Player",
          "name": "p",
          "type": "tuple"
        }
      ],
      "name": "changeplayer",
      "outputs": [],
      "stateMutability": "nonpayable",
      "type": "function"
    },
    {
      "inputs": [],
      "name": "owner",
      "outputs": [
        {
          "internalType": "address",
          "name": "",
          "type": "address"
        }
      ],
      "stateMutability": "view",
      "type": "function"
    },
    {
      "inputs": [
        {
          "internalType": "uint256",
          "name": "index",
          "type": "uint256"
        }
      ],
      "name": "removeplayer",
      "outputs": [],
      "stateMutability": "nonpayable",
      "type": "function"
    },
    {
      "inputs": [],
      "name": "renounceOwnership",
      "outputs": [],
      "stateMutability": "nonpayable",
      "type": "function"
    },
    {
      "inputs": [
        {
          "internalType": "uint256",
          "name": "jerseynumber",
          "type": "uint256"
        }
      ],
      "name": "showplayers",
      "outputs": [
        {
          "components": [
            {
              "internalType": "uint256",
              "name": "number",
              "type": "uint256"
            },
            {
              "internalType": "string",
              "name": "name",
              "type": "string"
            },
            {
              "internalType": "uint256",
              "name": "amount",
              "type": "uint256"
            },
            {
              "components": [
                {
                  "internalType": "uint256",
                  "name": "innings",
                  "type": "uint256"
                },
                {
                  "internalType": "uint256",
                  "name": "highestscore",
                  "type": "uint256"
                },
                {
                  "internalType": "uint256",
                  "name": "halfcentury",
                  "type": "uint256"
                },
                {
                  "internalType": "uint256",
                  "name": "century",
                  "type": "uint256"
                },
                {
                  "internalType": "uint256",
                  "name": "scoringrate",
                  "type": "uint256"
                }
              ],
              "internalType": "struct BuyTeam.Batsman",
              "name": "batsmanstats",
              "type": "tuple"
            },
            {
              "components": [
                {
                  "internalType": "uint256",
                  "name": "overs",
                  "type": "uint256"
                },
                {
                  "internalType": "uint256",
                  "name": "wickets",
                  "type": "uint256"
                },
                {
                  "internalType": "uint256",
                  "name": "mostwickets",
                  "type": "uint256"
                },
                {
                  "internalType": "uint256",
                  "name": "economyrate",
                  "type": "uint256"
                }
              ],
              "internalType": "struct BuyTeam.Bolwer",
              "name": "bowlerstats",
              "type": "tuple"
            }
          ],
          "internalType": "struct BuyTeam.Player",
          "name": "",
          "type": "tuple"
        }
      ],
      "stateMutability": "view",
      "type": "function"
    },
    {
      "inputs": [
        {
          "internalType": "address",
          "name": "newOwner",
          "type": "address"
        }
      ],
      "name": "transferOwnership",
      "outputs": [],
      "stateMutability": "nonpayable",
      "type": "function"
    }
  ],
  "bytecode": "0x608060405234801561001057600080fd5b5061002d61002261003260201b60201c565b61003a60201b60201c565b6100fe565b600033905090565b60008060009054906101000a900473ffffffffffffffffffffffffffffffffffffffff169050816000806101000a81548173ffffffffffffffffffffffffffffffffffffffff021916908373ffffffffffffffffffffffffffffffffffffffff1602179055508173ffffffffffffffffffffffffffffffffffffffff168173ffffffffffffffffffffffffffffffffffffffff167f8be0079c531659141344cd1fd0a4f28419497f9722a3daafe3b4186f6b6457e060405160405180910390a35050565b6119948061010d6000396000f3fe608060405234801561001057600080fd5b506004361061007d5760003560e01c80638200a7021161005b5780638200a702146100ec5780638da5cb5b14610108578063bafbcde414610126578063f2fde38b146101425761007d565b806353a8cc80146100825780636ffc51e4146100b2578063715018a6146100e2575b600080fd5b61009c60048036038101906100979190610f6c565b61015e565b6040516100a99190611176565b60405180910390f35b6100cc60048036038101906100c79190611485565b6103d9565b6040516100d991906114e9565b60405180910390f35b6100ea610683565b005b61010660048036038101906101019190611485565b61070b565b005b610110610972565b60405161011d9190611545565b60405180910390f35b610140600480360381019061013b9190610f6c565b61099b565b005b61015c6004803603810190610157919061158c565b610bd0565b005b610166610ded565b6000600260008481526020019081526020016000206001018054610189906115e8565b80601f01602080910402602001604051908101604052809291908181526020018280546101b5906115e8565b80156102025780601f106101d757610100808354040283529160200191610202565b820191906000526020600020905b8154815290600101906020018083116101e557829003601f168201915b50505050509050600015156102266040518060200160405280600081525083610cc8565b151514801561024c57506000600260008581526020019081526020016000206000015414155b61028b576040517f08c379a000000000000000000000000000000000000000000000000000000000815260040161028290611677565b60405180910390fd5b600260008481526020019081526020016000206040518060a0016040529081600082015481526020016001820180546102c3906115e8565b80601f01602080910402602001604051908101604052809291908181526020018280546102ef906115e8565b801561033c5780601f106103115761010080835404028352916020019161033c565b820191906000526020600020905b81548152906001019060200180831161031f57829003601f168201915b5050505050815260200160028201548152602001600382016040518060a00160405290816000820154815260200160018201548152602001600282015481526020016003820154815260200160048201548152505081526020016008820160405180608001604052908160008201548152602001600182015481526020016002820154815260200160038201548152505081525050915050919050565b60006103e3610d21565b73ffffffffffffffffffffffffffffffffffffffff16610401610972565b73ffffffffffffffffffffffffffffffffffffffff1614610457576040517f08c379a000000000000000000000000000000000000000000000000000000000815260040161044e906116e3565b60405180910390fd5b60005b600180549050811015610590576000600260006001848154811061048157610480611703565b5b9060005260206000200154815260200190815260200160002060010180546104a8906115e8565b80601f01602080910402602001604051908101604052809291908181526020018280546104d4906115e8565b80156105215780601f106104f657610100808354040283529160200191610521565b820191906000526020600020905b81548152906001019060200180831161050457829003601f168201915b505050505090506000151561053a828660200151610cc8565b15151461057c576040517f08c379a00000000000000000000000000000000000000000000000000000000081526004016105739061177e565b60405180910390fd5b508080610588906117cd565b91505061045a565b506001826000015190806001815401808255809150506001900390600052602060002001600090919091909150558160026000846000015181526020019081526020016000206000820151816000015560208201518160010190805190602001906105fc929190610e28565b50604082015181600201556060820151816003016000820151816000015560208201518160010155604082015181600201556060820151816003015560808201518160040155505060808201518160080160008201518160000155602082015181600101556040820151816002015560608201518160030155505090505060019050919050565b61068b610d21565b73ffffffffffffffffffffffffffffffffffffffff166106a9610972565b73ffffffffffffffffffffffffffffffffffffffff16146106ff576040517f08c379a00000000000000000000000000000000000000000000000000000000081526004016106f6906116e3565b60405180910390fd5b6107096000610d29565b565b610713610d21565b73ffffffffffffffffffffffffffffffffffffffff16610731610972565b73ffffffffffffffffffffffffffffffffffffffff1614610787576040517f08c379a000000000000000000000000000000000000000000000000000000000815260040161077e906116e3565b60405180910390fd5b60008160000151905060006002600083815260200190815260200160002060010180546107b3906115e8565b80601f01602080910402602001604051908101604052809291908181526020018280546107df906115e8565b801561082c5780601f106108015761010080835404028352916020019161082c565b820191906000526020600020905b81548152906001019060200180831161080f57829003601f168201915b50505050509050600015156108506040518060200160405280600081525083610cc8565b151514801561087657506000600260008481526020019081526020016000206000015414155b6108b5576040517f08c379a00000000000000000000000000000000000000000000000000000000081526004016108ac90611677565b60405180910390fd5b82600260008481526020019081526020016000206000820151816000015560208201518160010190805190602001906108ef929190610e28565b506040820151816002015560608201518160030160008201518160000155602082015181600101556040820151816002015560608201518160030155608082015181600401555050608082015181600801600082015181600001556020820151816001015560408201518160020155606082015181600301555050905050505050565b60008060009054906101000a900473ffffffffffffffffffffffffffffffffffffffff16905090565b6109a3610d21565b73ffffffffffffffffffffffffffffffffffffffff166109c1610972565b73ffffffffffffffffffffffffffffffffffffffff1614610a17576040517f08c379a0000000000000000000000000000000000000000000000000000000008152600401610a0e906116e3565b60405180910390fd5b6001808080549050610a299190611816565b81548110610a3a57610a39611703565b5b906000526020600020015460018281548110610a5957610a58611703565b5b90600052602060002001819055506001805480610a7957610a7861184a565b5b600190038181906000526020600020016000905590556040518060a0016040528060008152602001604051806020016040528060008152508152602001600081526020016040518060a0016040528060008152602001600081526020016000815260200160008152602001600081525081526020016040518060800160405280600081526020016000815260200160008152602001600081525081525060026000838152602001908152602001600020600082015181600001556020820151816001019080519060200190610b4f929190610e28565b50604082015181600201556060820151816003016000820151816000015560208201518160010155604082015181600201556060820151816003015560808201518160040155505060808201518160080160008201518160000155602082015181600101556040820151816002015560608201518160030155505090505050565b610bd8610d21565b73ffffffffffffffffffffffffffffffffffffffff16610bf6610972565b73ffffffffffffffffffffffffffffffffffffffff1614610c4c576040517f08c379a0000000000000000000000000000000000000000000000000000000008152600401610c43906116e3565b60405180910390fd5b600073ffffffffffffffffffffffffffffffffffffffff168173ffffffffffffffffffffffffffffffffffffffff161415610cbc576040517f08c379a0000000000000000000000000000000000000000000000000000000008152600401610cb3906118eb565b60405180910390fd5b610cc581610d29565b50565b600081604051602001610cdb9190611947565b6040516020818303038152906040528051906020012083604051602001610d029190611947565b6040516020818303038152906040528051906020012014905092915050565b600033905090565b60008060009054906101000a900473ffffffffffffffffffffffffffffffffffffffff169050816000806101000a81548173ffffffffffffffffffffffffffffffffffffffff021916908373ffffffffffffffffffffffffffffffffffffffff1602179055508173ffffffffffffffffffffffffffffffffffffffff168173ffffffffffffffffffffffffffffffffffffffff167f8be0079c531659141344cd1fd0a4f28419497f9722a3daafe3b4186f6b6457e060405160405180910390a35050565b6040518060a00160405280600081526020016060815260200160008152602001610e15610eae565b8152602001610e22610edd565b81525090565b828054610e34906115e8565b90600052602060002090601f016020900481019282610e565760008555610e9d565b82601f10610e6f57805160ff1916838001178555610e9d565b82800160010185558215610e9d579182015b82811115610e9c578251825591602001919060010190610e81565b5b509050610eaa9190610f05565b5090565b6040518060a0016040528060008152602001600081526020016000815260200160008152602001600081525090565b6040518060800160405280600081526020016000815260200160008152602001600081525090565b5b80821115610f1e576000816000905550600101610f06565b5090565b6000604051905090565b600080fd5b600080fd5b6000819050919050565b610f4981610f36565b8114610f5457600080fd5b50565b600081359050610f6681610f40565b92915050565b600060208284031215610f8257610f81610f2c565b5b6000610f9084828501610f57565b91505092915050565b610fa281610f36565b82525050565b600081519050919050565b600082825260208201905092915050565b60005b83811015610fe2578082015181840152602081019050610fc7565b83811115610ff1576000848401525b50505050565b6000601f19601f8301169050919050565b600061101382610fa8565b61101d8185610fb3565b935061102d818560208601610fc4565b61103681610ff7565b840191505092915050565b60a0820160008201516110576000850182610f99565b50602082015161106a6020850182610f99565b50604082015161107d6040850182610f99565b5060608201516110906060850182610f99565b5060808201516110a36080850182610f99565b50505050565b6080820160008201516110bf6000850182610f99565b5060208201516110d26020850182610f99565b5060408201516110e56040850182610f99565b5060608201516110f86060850182610f99565b50505050565b6000610180830160008301516111176000860182610f99565b506020830151848203602086015261112f8282611008565b91505060408301516111446040860182610f99565b5060608301516111576060860182611041565b50608083015161116b6101008601826110a9565b508091505092915050565b6000602082019050818103600083015261119081846110fe565b905092915050565b600080fd5b7f4e487b7100000000000000000000000000000000000000000000000000000000600052604160045260246000fd5b6111d582610ff7565b810181811067ffffffffffffffff821117156111f4576111f361119d565b5b80604052505050565b6000611207610f22565b905061121382826111cc565b919050565b600080fd5b600080fd5b600080fd5b600067ffffffffffffffff8211156112425761124161119d565b5b61124b82610ff7565b9050602081019050919050565b82818337600083830152505050565b600061127a61127584611227565b6111fd565b90508281526020810184848401111561129657611295611222565b5b6112a1848285611258565b509392505050565b600082601f8301126112be576112bd61121d565b5b81356112ce848260208601611267565b91505092915050565b600060a082840312156112ed576112ec611198565b5b6112f760a06111fd565b9050600061130784828501610f57565b600083015250602061131b84828501610f57565b602083015250604061132f84828501610f57565b604083015250606061134384828501610f57565b606083015250608061135784828501610f57565b60808301525092915050565b60006080828403121561137957611378611198565b5b61138360806111fd565b9050600061139384828501610f57565b60008301525060206113a784828501610f57565b60208301525060406113bb84828501610f57565b60408301525060606113cf84828501610f57565b60608301525092915050565b600061018082840312156113f2576113f1611198565b5b6113fc60a06111fd565b9050600061140c84828501610f57565b600083015250602082013567ffffffffffffffff8111156114305761142f611218565b5b61143c848285016112a9565b602083015250604061145084828501610f57565b6040830152506060611464848285016112d7565b60608301525061010061147984828501611363565b60808301525092915050565b60006020828403121561149b5761149a610f2c565b5b600082013567ffffffffffffffff8111156114b9576114b8610f31565b5b6114c5848285016113db565b91505092915050565b60008115159050919050565b6114e3816114ce565b82525050565b60006020820190506114fe60008301846114da565b92915050565b600073ffffffffffffffffffffffffffffffffffffffff82169050919050565b600061152f82611504565b9050919050565b61153f81611524565b82525050565b600060208201905061155a6000830184611536565b92915050565b61156981611524565b811461157457600080fd5b50565b60008135905061158681611560565b92915050565b6000602082840312156115a2576115a1610f2c565b5b60006115b084828501611577565b91505092915050565b7f4e487b7100000000000000000000000000000000000000000000000000000000600052602260045260246000fd5b6000600282049050600182168061160057607f821691505b60208210811415611614576116136115b9565b5b50919050565b600082825260208201905092915050565b7f4e6f2073756368206a6572736579206e756d6265720000000000000000000000600082015250565b600061166160158361161a565b915061166c8261162b565b602082019050919050565b6000602082019050818103600083015261169081611654565b9050919050565b7f4f776e61626c653a2063616c6c6572206973206e6f7420746865206f776e6572600082015250565b60006116cd60208361161a565b91506116d882611697565b602082019050919050565b600060208201905081810360008301526116fc816116c0565b9050919050565b7f4e487b7100000000000000000000000000000000000000000000000000000000600052603260045260246000fd5b7f506c6179657220616c7265616479206164646564000000000000000000000000600082015250565b600061176860148361161a565b915061177382611732565b602082019050919050565b600060208201905081810360008301526117978161175b565b9050919050565b7f4e487b7100000000000000000000000000000000000000000000000000000000600052601160045260246000fd5b60006117d882610f36565b91507fffffffffffffffffffffffffffffffffffffffffffffffffffffffffffffffff82141561180b5761180a61179e565b5b600182019050919050565b600061182182610f36565b915061182c83610f36565b92508282101561183f5761183e61179e565b5b828203905092915050565b7f4e487b7100000000000000000000000000000000000000000000000000000000600052603160045260246000fd5b7f4f776e61626c653a206e6577206f776e657220697320746865207a65726f206160008201527f6464726573730000000000000000000000000000000000000000000000000000602082015250565b60006118d560268361161a565b91506118e082611879565b604082019050919050565b60006020820190508181036000830152611904816118c8565b9050919050565b600081905092915050565b600061192182610fa8565b61192b818561190b565b935061193b818560208601610fc4565b80840191505092915050565b60006119538284611916565b91508190509291505056fea2646970667358221220f40b2d9fc8ffb6ccbb9cbf5bb832e7c4c6e05d6391f206958f226491dda4206264736f6c63430008090033",
  "linkReferences": {},
  "deployedLinkReferences": {}
}